{
  "address": "0x853C721AFAe7dFe98CC27D65B9fd19a4E63D0fac",
  "abi": [
    {
      "inputs": [
        {
          "internalType": "address",
          "name": "_VRFCoordinator",
          "type": "address"
        },
        {
          "internalType": "address",
          "name": "_LinkToken",
          "type": "address"
        },
        {
          "internalType": "bytes32",
          "name": "_keyHash",
          "type": "bytes32"
        },
        {
          "internalType": "uint256",
          "name": "_fee",
          "type": "uint256"
        }
      ],
      "stateMutability": "nonpayable",
      "type": "constructor"
    },
    {
      "anonymous": false,
      "inputs": [
        {
          "indexed": true,
          "internalType": "address",
          "name": "owner",
          "type": "address"
        },
        {
          "indexed": true,
          "internalType": "address",
          "name": "approved",
          "type": "address"
        },
        {
          "indexed": true,
          "internalType": "uint256",
          "name": "tokenId",
          "type": "uint256"
        }
      ],
      "name": "Approval",
      "type": "event"
    },
    {
      "anonymous": false,
      "inputs": [
        {
          "indexed": true,
          "internalType": "address",
          "name": "owner",
          "type": "address"
        },
        {
          "indexed": true,
          "internalType": "address",
          "name": "operator",
          "type": "address"
        },
        {
          "indexed": false,
          "internalType": "bool",
          "name": "approved",
          "type": "bool"
        }
      ],
      "name": "ApprovalForAll",
      "type": "event"
    },
    {
      "anonymous": false,
      "inputs": [
        {
          "indexed": true,
          "internalType": "uint256",
          "name": "tokenId",
          "type": "uint256"
        },
        {
          "indexed": false,
          "internalType": "string",
          "name": "tokenURI",
          "type": "string"
        }
      ],
      "name": "CreatedRandomSVG",
      "type": "event"
    },
    {
      "anonymous": false,
      "inputs": [
        {
          "indexed": true,
          "internalType": "uint256",
          "name": "tokenId",
          "type": "uint256"
        },
        {
          "indexed": false,
          "internalType": "uint256",
          "name": "randomNumber",
          "type": "uint256"
        }
      ],
      "name": "CreatedUnfinishedRandomSVG",
      "type": "event"
    },
    {
      "anonymous": false,
      "inputs": [
        {
          "indexed": true,
          "internalType": "address",
          "name": "from",
          "type": "address"
        },
        {
          "indexed": true,
          "internalType": "address",
          "name": "to",
          "type": "address"
        },
        {
          "indexed": true,
          "internalType": "uint256",
          "name": "tokenId",
          "type": "uint256"
        }
      ],
      "name": "Transfer",
      "type": "event"
    },
    {
      "anonymous": false,
      "inputs": [
        {
          "indexed": true,
          "internalType": "bytes32",
          "name": "requestId",
          "type": "bytes32"
        },
        {
          "indexed": true,
          "internalType": "uint256",
          "name": "tokenId",
          "type": "uint256"
        }
      ],
      "name": "requestedRandomSVG",
      "type": "event"
    },
    {
      "inputs": [
        {
          "internalType": "address",
          "name": "to",
          "type": "address"
        },
        {
          "internalType": "uint256",
          "name": "tokenId",
          "type": "uint256"
        }
      ],
      "name": "approve",
      "outputs": [],
      "stateMutability": "nonpayable",
      "type": "function"
    },
    {
      "inputs": [
        {
          "internalType": "address",
          "name": "owner",
          "type": "address"
        }
      ],
      "name": "balanceOf",
      "outputs": [
        {
          "internalType": "uint256",
          "name": "",
          "type": "uint256"
        }
      ],
      "stateMutability": "view",
      "type": "function"
    },
    {
      "inputs": [
        {
          "internalType": "uint256",
          "name": "",
          "type": "uint256"
        }
      ],
      "name": "colors",
      "outputs": [
        {
          "internalType": "string",
          "name": "",
          "type": "string"
        }
      ],
      "stateMutability": "view",
      "type": "function"
    },
    {
      "inputs": [],
      "name": "create",
      "outputs": [
        {
          "internalType": "bytes32",
          "name": "requestId",
          "type": "bytes32"
        }
      ],
      "stateMutability": "nonpayable",
      "type": "function"
    },
    {
      "inputs": [],
      "name": "fee",
      "outputs": [
        {
          "internalType": "uint256",
          "name": "",
          "type": "uint256"
        }
      ],
      "stateMutability": "view",
      "type": "function"
    },
    {
      "inputs": [
        {
          "internalType": "uint256",
          "name": "_tokenId",
          "type": "uint256"
        }
      ],
      "name": "finishMint",
      "outputs": [],
      "stateMutability": "nonpayable",
      "type": "function"
    },
    {
      "inputs": [
        {
          "internalType": "string",
          "name": "imageURI",
          "type": "string"
        }
      ],
      "name": "formatTokenURI",
      "outputs": [
        {
          "internalType": "string",
          "name": "",
          "type": "string"
        }
      ],
      "stateMutability": "pure",
      "type": "function"
    },
    {
      "inputs": [
        {
          "internalType": "uint256",
          "name": "_randomNumber",
          "type": "uint256"
        }
      ],
      "name": "generatePath",
      "outputs": [
        {
          "internalType": "string",
          "name": "pathSvg",
          "type": "string"
        }
      ],
      "stateMutability": "view",
      "type": "function"
    },
    {
      "inputs": [
        {
          "internalType": "uint256",
          "name": "_randomNumber",
          "type": "uint256"
        }
      ],
      "name": "generatePathCommand",
      "outputs": [
        {
          "internalType": "string",
          "name": "pathCommand",
          "type": "string"
        }
      ],
      "stateMutability": "view",
      "type": "function"
    },
    {
      "inputs": [
        {
          "internalType": "uint256",
          "name": "_randomNumber",
          "type": "uint256"
        }
      ],
      "name": "generateSVG",
      "outputs": [
        {
          "internalType": "string",
          "name": "finalSvg",
          "type": "string"
        }
      ],
      "stateMutability": "view",
      "type": "function"
    },
    {
      "inputs": [
        {
          "internalType": "uint256",
          "name": "tokenId",
          "type": "uint256"
        }
      ],
      "name": "getApproved",
      "outputs": [
        {
          "internalType": "address",
          "name": "",
          "type": "address"
        }
      ],
      "stateMutability": "view",
      "type": "function"
    },
    {
      "inputs": [
        {
          "internalType": "address",
          "name": "owner",
          "type": "address"
        },
        {
          "internalType": "address",
          "name": "operator",
          "type": "address"
        }
      ],
      "name": "isApprovedForAll",
      "outputs": [
        {
          "internalType": "bool",
          "name": "",
          "type": "bool"
        }
      ],
      "stateMutability": "view",
      "type": "function"
    },
    {
      "inputs": [],
      "name": "keyHash",
      "outputs": [
        {
          "internalType": "bytes32",
          "name": "",
          "type": "bytes32"
        }
      ],
      "stateMutability": "view",
      "type": "function"
    },
    {
      "inputs": [],
      "name": "maxNumberOfPathCommands",
      "outputs": [
        {
          "internalType": "uint256",
          "name": "",
          "type": "uint256"
        }
      ],
      "stateMutability": "view",
      "type": "function"
    },
    {
      "inputs": [],
      "name": "maxNumberOfPaths",
      "outputs": [
        {
          "internalType": "uint256",
          "name": "",
          "type": "uint256"
        }
      ],
      "stateMutability": "view",
      "type": "function"
    },
    {
      "inputs": [],
      "name": "name",
      "outputs": [
        {
          "internalType": "string",
          "name": "",
          "type": "string"
        }
      ],
      "stateMutability": "view",
      "type": "function"
    },
    {
      "inputs": [
        {
          "internalType": "uint256",
          "name": "tokenId",
          "type": "uint256"
        }
      ],
      "name": "ownerOf",
      "outputs": [
        {
          "internalType": "address",
          "name": "",
          "type": "address"
        }
      ],
      "stateMutability": "view",
      "type": "function"
    },
    {
      "inputs": [
        {
          "internalType": "uint256",
          "name": "",
          "type": "uint256"
        }
      ],
      "name": "pathCommands",
      "outputs": [
        {
          "internalType": "string",
          "name": "",
          "type": "string"
        }
      ],
      "stateMutability": "view",
      "type": "function"
    },
    {
      "inputs": [
        {
          "internalType": "bytes32",
          "name": "requestId",
          "type": "bytes32"
        },
        {
          "internalType": "uint256",
          "name": "randomness",
          "type": "uint256"
        }
      ],
      "name": "rawFulfillRandomness",
      "outputs": [],
      "stateMutability": "nonpayable",
      "type": "function"
    },
    {
      "inputs": [
        {
          "internalType": "bytes32",
          "name": "",
          "type": "bytes32"
        }
      ],
      "name": "requestIdToSender",
      "outputs": [
        {
          "internalType": "address",
          "name": "",
          "type": "address"
        }
      ],
      "stateMutability": "view",
      "type": "function"
    },
    {
      "inputs": [
        {
          "internalType": "bytes32",
          "name": "",
          "type": "bytes32"
        }
      ],
      "name": "requestIdToTokenId",
      "outputs": [
        {
          "internalType": "uint256",
          "name": "",
          "type": "uint256"
        }
      ],
      "stateMutability": "view",
      "type": "function"
    },
    {
      "inputs": [
        {
          "internalType": "address",
          "name": "from",
          "type": "address"
        },
        {
          "internalType": "address",
          "name": "to",
          "type": "address"
        },
        {
          "internalType": "uint256",
          "name": "tokenId",
          "type": "uint256"
        }
      ],
      "name": "safeTransferFrom",
      "outputs": [],
      "stateMutability": "nonpayable",
      "type": "function"
    },
    {
      "inputs": [
        {
          "internalType": "address",
          "name": "from",
          "type": "address"
        },
        {
          "internalType": "address",
          "name": "to",
          "type": "address"
        },
        {
          "internalType": "uint256",
          "name": "tokenId",
          "type": "uint256"
        },
        {
          "internalType": "bytes",
          "name": "_data",
          "type": "bytes"
        }
      ],
      "name": "safeTransferFrom",
      "outputs": [],
      "stateMutability": "nonpayable",
      "type": "function"
    },
    {
      "inputs": [
        {
          "internalType": "address",
          "name": "operator",
          "type": "address"
        },
        {
          "internalType": "bool",
          "name": "approved",
          "type": "bool"
        }
      ],
      "name": "setApprovalForAll",
      "outputs": [],
      "stateMutability": "nonpayable",
      "type": "function"
    },
    {
      "inputs": [],
      "name": "size",
      "outputs": [
        {
          "internalType": "uint256",
          "name": "",
          "type": "uint256"
        }
      ],
      "stateMutability": "view",
      "type": "function"
    },
    {
      "inputs": [
        {
          "internalType": "bytes4",
          "name": "interfaceId",
          "type": "bytes4"
        }
      ],
      "name": "supportsInterface",
      "outputs": [
        {
          "internalType": "bool",
          "name": "",
          "type": "bool"
        }
      ],
      "stateMutability": "view",
      "type": "function"
    },
    {
      "inputs": [
        {
          "internalType": "string",
          "name": "svg",
          "type": "string"
        }
      ],
      "name": "svgToImageURI",
      "outputs": [
        {
          "internalType": "string",
          "name": "",
          "type": "string"
        }
      ],
      "stateMutability": "pure",
      "type": "function"
    },
    {
      "inputs": [],
      "name": "symbol",
      "outputs": [
        {
          "internalType": "string",
          "name": "",
          "type": "string"
        }
      ],
      "stateMutability": "view",
      "type": "function"
    },
    {
      "inputs": [],
      "name": "tokenCounter",
      "outputs": [
        {
          "internalType": "uint256",
          "name": "",
          "type": "uint256"
        }
      ],
      "stateMutability": "view",
      "type": "function"
    },
    {
      "inputs": [
        {
          "internalType": "uint256",
          "name": "",
          "type": "uint256"
        }
      ],
      "name": "tokenIdToRandomNumber",
      "outputs": [
        {
          "internalType": "uint256",
          "name": "",
          "type": "uint256"
        }
      ],
      "stateMutability": "view",
      "type": "function"
    },
    {
      "inputs": [
        {
          "internalType": "uint256",
          "name": "tokenId",
          "type": "uint256"
        }
      ],
      "name": "tokenURI",
      "outputs": [
        {
          "internalType": "string",
          "name": "",
          "type": "string"
        }
      ],
      "stateMutability": "view",
      "type": "function"
    },
    {
      "inputs": [
        {
          "internalType": "address",
          "name": "from",
          "type": "address"
        },
        {
          "internalType": "address",
          "name": "to",
          "type": "address"
        },
        {
          "internalType": "uint256",
          "name": "tokenId",
          "type": "uint256"
        }
      ],
      "name": "transferFrom",
      "outputs": [],
      "stateMutability": "nonpayable",
      "type": "function"
    }
  ],
  "transactionHash": "0x77e3ee879d0c76aa7cd39ac61fe0d314f5ab565f6bd1cefb3825a4fd4f851491",
  "args": [
    "0x6168499c0cFfCaCD319c818142124B7A15E857ab",
    "0x01BE23585060835E02B77ef475b0Cc51aA1e0709",
    "0xd89b2bf150e3b9e13446986e571fb9cab24b13cea0a43ea20a6049a85cc807cc",
    "250000000000000000"
  ],
  "numDeployments": 1,
  "solcInputHash": "8c5028d4e5ad104484608d53bda84e78",
  "bytecode": "0x60c06040523480156200001157600080fd5b5060405162005098380380620050988339818101604052810190620000379190620005c3565b83836040518060400160405280600981526020017f52616e646f6d53564700000000000000000000000000000000000000000000008152506040518060400160405280600581526020017f72734e46540000000000000000000000000000000000000000000000000000008152508160009080519060200190620000bd92919062000392565b508060019080519060200190620000d692919062000392565b5050508173ffffffffffffffffffffffffffffffffffffffff1660a08173ffffffffffffffffffffffffffffffffffffffff1660601b815250508073ffffffffffffffffffffffffffffffffffffffff1660808173ffffffffffffffffffffffffffffffffffffffff1660601b8152505050508160098190555080600a819055506000600881905550600a600b819055506005600c819055506101f4600d8190555060405180604001604052806040518060400160405280600181526020017f4d0000000000000000000000000000000000000000000000000000000000000081525081526020016040518060400160405280600181526020017f4c00000000000000000000000000000000000000000000000000000000000000815250815250600e9060026200020992919062000423565b506040518060c001604052806040518060400160405280600381526020017f726564000000000000000000000000000000000000000000000000000000000081525081526020016040518060400160405280600481526020017f626c75650000000000000000000000000000000000000000000000000000000081525081526020016040518060400160405280600581526020017f677265656e00000000000000000000000000000000000000000000000000000081525081526020016040518060400160405280600681526020017f79656c6c6f77000000000000000000000000000000000000000000000000000081525081526020016040518060400160405280600581526020017f626c61636b00000000000000000000000000000000000000000000000000000081525081526020016040518060400160405280600581526020017f7768697465000000000000000000000000000000000000000000000000000000815250815250600f906006620003879291906200048a565b50505050506200072a565b828054620003a09062000677565b90600052602060002090601f016020900481019282620003c4576000855562000410565b82601f10620003df57805160ff191683800117855562000410565b8280016001018555821562000410579182015b828111156200040f578251825591602001919060010190620003f2565b5b5090506200041f9190620004f1565b5090565b82805482825590600052602060002090810192821562000477579160200282015b82811115620004765782518290805190602001906200046592919062000392565b509160200191906001019062000444565b5b50905062000486919062000510565b5090565b828054828255906000526020600020908101928215620004de579160200282015b82811115620004dd578251829080519060200190620004cc92919062000392565b5091602001919060010190620004ab565b5b509050620004ed919062000510565b5090565b5b808211156200050c576000816000905550600101620004f2565b5090565b5b808211156200053457600081816200052a919062000538565b5060010162000511565b5090565b508054620005469062000677565b6000825580601f106200055a57506200057b565b601f0160209004906000526020600020908101906200057a9190620004f1565b5b50565b6000815190506200058f81620006dc565b92915050565b600081519050620005a681620006f6565b92915050565b600081519050620005bd8162000710565b92915050565b60008060008060808587031215620005da57600080fd5b6000620005ea878288016200057e565b9450506020620005fd878288016200057e565b9350506040620006108782880162000595565b92505060606200062387828801620005ac565b91505092959194509250565b60006200063c826200064d565b9050919050565b6000819050919050565b600073ffffffffffffffffffffffffffffffffffffffff82169050919050565b6000819050919050565b600060028204905060018216806200069057607f821691505b60208210811415620006a757620006a6620006ad565b5b50919050565b7f4e487b7100000000000000000000000000000000000000000000000000000000600052602260045260246000fd5b620006e7816200062f565b8114620006f357600080fd5b50565b620007018162000643565b81146200070d57600080fd5b50565b6200071b816200066d565b81146200072757600080fd5b50565b60805160601c60a05160601c61493b6200075d600039600081816111b6015261258001526000612544015261493b6000f3fe608060405234801561001057600080fd5b50600436106101f05760003560e01c806371aee1931161010f578063bd11f69d116100a2578063d082e38111610071578063d082e3811461063d578063ddca3f431461065b578063e985e9c514610679578063efc81a8c146106a9576101f0565b8063bd11f69d1461058f578063c21bf36f146105bf578063c68b49d1146105dd578063c87b56dd1461060d576101f0565b806395d89b41116100de57806395d89b41146105095780639c1cd79514610527578063a22cb46514610557578063b88d4fde14610573576101f0565b806371aee1931461046f57806394985ddd1461049f578063949d225d146104bb578063955968d4146104d9576101f0565b806333af598911610187578063624194c711610156578063624194c7146103c35780636352211e146103df5780636dcee4ca1461040f57806370a082311461043f576101f0565b806333af59891461033b57806342842e0e1461036b57806348e896ab1461038757806361728f39146103a5576101f0565b8063219c0eee116101c3578063219c0eee1461028f57806322881f88146102bf57806323b872dd146102ef57806330d871c61461030b576101f0565b806301ffc9a7146101f557806306fdde0314610225578063081812fc14610243578063095ea7b314610273575b600080fd5b61020f600480360381019061020a9190613110565b6106c7565b60405161021c91906138fc565b60405180910390f35b61022d6107a9565b60405161023a91906139a0565b60405180910390f35b61025d600480360381019061025891906131a3565b61083b565b60405161026a9190613857565b60405180910390f35b61028d60048036038101906102889190613046565b6108c0565b005b6102a960048036038101906102a491906130ab565b6109d8565b6040516102b69190613857565b60405180910390f35b6102d960048036038101906102d491906130ab565b610a0b565b6040516102e69190613c42565b60405180910390f35b61030960048036038101906103049190612f40565b610a23565b005b61032560048036038101906103209190613162565b610a83565b60405161033291906139a0565b60405180910390f35b610355600480360381019061035091906131a3565b610b1c565b60405161036291906139a0565b60405180910390f35b61038560048036038101906103809190612f40565b610d0e565b005b61038f610d2e565b60405161039c9190613c42565b60405180910390f35b6103ad610d34565b6040516103ba9190613917565b60405180910390f35b6103dd60048036038101906103d891906131a3565b610d3a565b005b6103f960048036038101906103f491906131a3565b610ea9565b6040516104069190613857565b60405180910390f35b610429600480360381019061042491906131a3565b610f5b565b60405161043691906139a0565b60405180910390f35b61045960048036038101906104549190612edb565b61105d565b6040516104669190613c42565b60405180910390f35b61048960048036038101906104849190613162565b611115565b60405161049691906139a0565b60405180910390f35b6104b960048036038101906104b491906130d4565b6111b4565b005b6104c3611250565b6040516104d09190613c42565b60405180910390f35b6104f360048036038101906104ee91906131a3565b611256565b60405161050091906139a0565b60405180910390f35b610511611302565b60405161051e91906139a0565b60405180910390f35b610541600480360381019061053c91906131a3565b611394565b60405161054e9190613c42565b60405180910390f35b610571600480360381019061056c919061300a565b6113ac565b005b61058d60048036038101906105889190612f8f565b6113c2565b005b6105a960048036038101906105a491906131a3565b611424565b6040516105b691906139a0565b60405180910390f35b6105c76114d0565b6040516105d49190613c42565b60405180910390f35b6105f760048036038101906105f291906131a3565b6114d6565b60405161060491906139a0565b60405180910390f35b610627600480360381019061062291906131a3565b611689565b60405161063491906139a0565b60405180910390f35b6106456117db565b6040516106529190613c42565b60405180910390f35b6106636117e1565b6040516106709190613c42565b60405180910390f35b610693600480360381019061068e9190612f04565b6117e7565b6040516106a091906138fc565b60405180910390f35b6106b161187b565b6040516106be9190613917565b60405180910390f35b60007f80ac58cd000000000000000000000000000000000000000000000000000000007bffffffffffffffffffffffffffffffffffffffffffffffffffffffff1916827bffffffffffffffffffffffffffffffffffffffffffffffffffffffff1916148061079257507f5b5e139f000000000000000000000000000000000000000000000000000000007bffffffffffffffffffffffffffffffffffffffffffffffffffffffff1916827bffffffffffffffffffffffffffffffffffffffffffffffffffffffff1916145b806107a257506107a182611945565b5b9050919050565b6060600080546107b890613f69565b80601f01602080910402602001604051908101604052809291908181526020018280546107e490613f69565b80156108315780601f1061080657610100808354040283529160200191610831565b820191906000526020600020905b81548152906001019060200180831161081457829003601f168201915b5050505050905090565b6000610846826119af565b610885576040517f08c379a000000000000000000000000000000000000000000000000000000000815260040161087c90613b82565b60405180910390fd5b6004600083815260200190815260200160002060009054906101000a900473ffffffffffffffffffffffffffffffffffffffff169050919050565b60006108cb82610ea9565b90508073ffffffffffffffffffffffffffffffffffffffff168373ffffffffffffffffffffffffffffffffffffffff16141561093c576040517f08c379a000000000000000000000000000000000000000000000000000000000815260040161093390613be2565b60405180910390fd5b8073ffffffffffffffffffffffffffffffffffffffff1661095b611a1b565b73ffffffffffffffffffffffffffffffffffffffff16148061098a575061098981610984611a1b565b6117e7565b5b6109c9576040517f08c379a00000000000000000000000000000000000000000000000000000000081526004016109c090613ac2565b60405180910390fd5b6109d38383611a23565b505050565b60106020528060005260406000206000915054906101000a900473ffffffffffffffffffffffffffffffffffffffff1681565b60116020528060005260406000206000915090505481565b610a34610a2e611a1b565b82611adc565b610a73576040517f08c379a0000000000000000000000000000000000000000000000000000000008152600401610a6a90613c02565b60405180910390fd5b610a7e838383611bba565b505050565b606060006040518060400160405280601a81526020017f646174613a696d6167652f7376672b786d6c3b6261736536342c00000000000081525090506000610ae984604051602001610ad591906136fc565b604051602081830303815290604052611e21565b905060008282604051602001610b00929190613713565b6040516020818303038152906040529050809350505050919050565b606060006001600c5484610b309190614029565b610b3a9190613d50565b90506040518060400160405280600981526020017f3c7061746820643d270000000000000000000000000000000000000000000000815250915060005b81811015610c025760008482600d54610b909190613d50565b604051602001610ba1929190613c5d565b6040516020818303038152906040528051906020012060001c90506000610bc7826114d6565b90508481604051602001610bdc929190613713565b604051602081830303815290604052945050508080610bfa90613fcc565b915050610b77565b506000600f808054905085610c179190614029565b81548110610c4e577f4e487b7100000000000000000000000000000000000000000000000000000000600052603260045260246000fd5b906000526020600020018054610c6390613f69565b80601f0160208091040260200160405190810160405280929190818152602001828054610c8f90613f69565b8015610cdc5780601f10610cb157610100808354040283529160200191610cdc565b820191906000526020600020905b815481529060010190602001808311610cbf57829003601f168201915b505050505090508281604051602001610cf6929190613737565b60405160208183030381529060405292505050919050565b610d29838383604051806020016040528060008152506113c2565b505050565b600c5481565b60095481565b6000610d4582611689565b511115610d87576040517f08c379a0000000000000000000000000000000000000000000000000000000008152600401610d7e90613a82565b60405180910390fd5b8060085411610dcb576040517f08c379a0000000000000000000000000000000000000000000000000000000008152600401610dc290613a22565b60405180910390fd5b6000601260008381526020019081526020016000205411610e21576040517f08c379a0000000000000000000000000000000000000000000000000000000008152600401610e1890613c22565b60405180910390fd5b6000601260008381526020019081526020016000205490506000610e4482610f5b565b90506000610e5182610a83565b90506000610e5e82611115565b9050610e6a8582611fc0565b847f15a6487b7915a7116ce2a61d43b17e9b47484b1931f3c79f2f3d139b307b389382604051610e9a91906139a0565b60405180910390a25050505050565b6000806002600084815260200190815260200160002060009054906101000a900473ffffffffffffffffffffffffffffffffffffffff169050600073ffffffffffffffffffffffffffffffffffffffff168173ffffffffffffffffffffffffffffffffffffffff161415610f52576040517f08c379a0000000000000000000000000000000000000000000000000000000008152600401610f4990613b02565b60405180910390fd5b80915050919050565b606060006001600b5484610f6f9190614029565b610f799190613d50565b9050610f86600d54612034565b610f91600d54612034565b604051602001610fa2929190613812565b604051602081830303815290604052915060005b818110156110345760008482604051602001610fd3929190613c5d565b6040516020818303038152906040528051906020012060001c90506000610ff982610b1c565b9050848160405160200161100e929190613713565b60405160208183030381529060405294505050808061102c90613fcc565b915050610fb6565b508160405160200161104691906137c3565b604051602081830303815290604052915050919050565b60008073ffffffffffffffffffffffffffffffffffffffff168273ffffffffffffffffffffffffffffffffffffffff1614156110ce576040517f08c379a00000000000000000000000000000000000000000000000000000000081526004016110c590613ae2565b60405180910390fd5b600360008373ffffffffffffffffffffffffffffffffffffffff1673ffffffffffffffffffffffffffffffffffffffff168152602001908152602001600020549050919050565b606060008260405160200161112a91906137e5565b6040516020818303038152906040529050600061114682611e21565b905060006040518060400160405280601d81526020017f646174613a6170706c69636174696f6e2f6a736f6e3b6261736536342c000000815250905060008183604051602001611197929190613713565b604051602081830303815290604052905080945050505050919050565b7f000000000000000000000000000000000000000000000000000000000000000073ffffffffffffffffffffffffffffffffffffffff163373ffffffffffffffffffffffffffffffffffffffff1614611242576040517f08c379a000000000000000000000000000000000000000000000000000000000815260040161123990613bc2565b60405180910390fd5b61124c8282612209565b5050565b600d5481565b600e818154811061126657600080fd5b90600052602060002001600091509050805461128190613f69565b80601f01602080910402602001604051908101604052809291908181526020018280546112ad90613f69565b80156112fa5780601f106112cf576101008083540402835291602001916112fa565b820191906000526020600020905b8154815290600101906020018083116112dd57829003601f168201915b505050505081565b60606001805461131190613f69565b80601f016020809104026020016040519081016040528092919081815260200182805461133d90613f69565b801561138a5780601f1061135f5761010080835404028352916020019161138a565b820191906000526020600020905b81548152906001019060200180831161136d57829003601f168201915b5050505050905090565b60126020528060005260406000206000915090505481565b6113be6113b7611a1b565b83836122b9565b5050565b6113d36113cd611a1b565b83611adc565b611412576040517f08c379a000000000000000000000000000000000000000000000000000000000815260040161140990613c02565b60405180910390fd5b61141e84848484612426565b50505050565b600f818154811061143457600080fd5b90600052602060002001600091509050805461144f90613f69565b80601f016020809104026020016040519081016040528092919081815260200182805461147b90613f69565b80156114c85780601f1061149d576101008083540402835291602001916114c8565b820191906000526020600020905b8154815290600101906020018083116114ab57829003601f168201915b505050505081565b600b5481565b6060600e8080549050836114ea9190614029565b81548110611521577f4e487b7100000000000000000000000000000000000000000000000000000000600052603260045260246000fd5b90600052602060002001805461153690613f69565b80601f016020809104026020016040519081016040528092919081815260200182805461156290613f69565b80156115af5780601f10611584576101008083540402835291602001916115af565b820191906000526020600020905b81548152906001019060200180831161159257829003601f168201915b505050505090506000600d54836002600d546115cb9190613e0e565b6040516020016115dc929190613c5d565b6040516020818303038152906040528051906020012060001c6115ff9190614029565b90506000600d54846003600d546116169190613e0e565b604051602001611627929190613c5d565b6040516020818303038152906040528051906020012060001c61164a9190614029565b90508261165683612034565b61165f83612034565b60405160200161167193929190613771565b60405160208183030381529060405292505050919050565b6060611694826119af565b6116d3576040517f08c379a00000000000000000000000000000000000000000000000000000000081526004016116ca90613b62565b60405180910390fd5b60006006600084815260200190815260200160002080546116f390613f69565b80601f016020809104026020016040519081016040528092919081815260200182805461171f90613f69565b801561176c5780601f106117415761010080835404028352916020019161176c565b820191906000526020600020905b81548152906001019060200180831161174f57829003601f168201915b50505050509050600061177d612482565b90506000815114156117935781925050506117d6565b6000825111156117c85780826040516020016117b0929190613713565b604051602081830303815290604052925050506117d6565b6117d184612499565b925050505b919050565b60085481565b600a5481565b6000600560008473ffffffffffffffffffffffffffffffffffffffff1673ffffffffffffffffffffffffffffffffffffffff16815260200190815260200160002060008373ffffffffffffffffffffffffffffffffffffffff1673ffffffffffffffffffffffffffffffffffffffff16815260200190815260200160002060009054906101000a900460ff16905092915050565b600061188b600954600a54612540565b9050336010600083815260200190815260200160002060006101000a81548173ffffffffffffffffffffffffffffffffffffffff021916908373ffffffffffffffffffffffffffffffffffffffff16021790555060006008549050806011600084815260200190815260200160002081905550600160085461190d9190613d50565b60088190555080827fb97343f1f2afc4959f818046ccae28fd7b05fcd2b7a7dc651cbb52a096cae03560405160405180910390a35090565b60007f01ffc9a7000000000000000000000000000000000000000000000000000000007bffffffffffffffffffffffffffffffffffffffffffffffffffffffff1916827bffffffffffffffffffffffffffffffffffffffffffffffffffffffff1916149050919050565b60008073ffffffffffffffffffffffffffffffffffffffff166002600084815260200190815260200160002060009054906101000a900473ffffffffffffffffffffffffffffffffffffffff1673ffffffffffffffffffffffffffffffffffffffff1614159050919050565b600033905090565b816004600083815260200190815260200160002060006101000a81548173ffffffffffffffffffffffffffffffffffffffff021916908373ffffffffffffffffffffffffffffffffffffffff160217905550808273ffffffffffffffffffffffffffffffffffffffff16611a9683610ea9565b73ffffffffffffffffffffffffffffffffffffffff167f8c5be1e5ebec7d5bd14f71427d1e84f3dd0314c0f7b2291e5b200ac8c7c3b92560405160405180910390a45050565b6000611ae7826119af565b611b26576040517f08c379a0000000000000000000000000000000000000000000000000000000008152600401611b1d90613aa2565b60405180910390fd5b6000611b3183610ea9565b90508073ffffffffffffffffffffffffffffffffffffffff168473ffffffffffffffffffffffffffffffffffffffff161480611ba057508373ffffffffffffffffffffffffffffffffffffffff16611b888461083b565b73ffffffffffffffffffffffffffffffffffffffff16145b80611bb15750611bb081856117e7565b5b91505092915050565b8273ffffffffffffffffffffffffffffffffffffffff16611bda82610ea9565b73ffffffffffffffffffffffffffffffffffffffff1614611c30576040517f08c379a0000000000000000000000000000000000000000000000000000000008152600401611c27906139e2565b60405180910390fd5b600073ffffffffffffffffffffffffffffffffffffffff168273ffffffffffffffffffffffffffffffffffffffff161415611ca0576040517f08c379a0000000000000000000000000000000000000000000000000000000008152600401611c9790613a42565b60405180910390fd5b611cab8383836126a2565b611cb6600082611a23565b6001600360008573ffffffffffffffffffffffffffffffffffffffff1673ffffffffffffffffffffffffffffffffffffffff1681526020019081526020016000206000828254611d069190613e68565b925050819055506001600360008473ffffffffffffffffffffffffffffffffffffffff1673ffffffffffffffffffffffffffffffffffffffff1681526020019081526020016000206000828254611d5d9190613d50565b92505081905550816002600083815260200190815260200160002060006101000a81548173ffffffffffffffffffffffffffffffffffffffff021916908373ffffffffffffffffffffffffffffffffffffffff160217905550808273ffffffffffffffffffffffffffffffffffffffff168473ffffffffffffffffffffffffffffffffffffffff167fddf252ad1be2c89b69c2b068fc378daa952ba7f163c4a11628f55a4df523b3ef60405160405180910390a4611e1c8383836126a7565b505050565b6060600082511415611e4457604051806020016040528060008152509050611fbb565b60006040518060600160405280604081526020016148c66040913990506000600360028551611e739190613d50565b611e7d9190613ddd565b6004611e899190613e0e565b90506000602082611e9a9190613d50565b67ffffffffffffffff811115611ed9577f4e487b7100000000000000000000000000000000000000000000000000000000600052604160045260246000fd5b6040519080825280601f01601f191660200182016040528015611f0b5781602001600182028036833780820191505090505b509050818152600183018586518101602084015b81831015611f7a576003830192508251603f8160121c168501518253600182019150603f81600c1c168501518253600182019150603f8160061c168501518253600182019150603f8116850151825360018201915050611f1f565b600389510660018114611f945760028114611fa457611faf565b613d3d60f01b6002830352611faf565b603d60f81b60018303525b50505050508093505050505b919050565b611fc9826119af565b612008576040517f08c379a0000000000000000000000000000000000000000000000000000000008152600401611fff90613b22565b60405180910390fd5b8060066000848152602001908152602001600020908051906020019061202f929190612cd5565b505050565b6060600082141561207c576040518060400160405280600181526020017f30000000000000000000000000000000000000000000000000000000000000008152509050612204565b600082905060005b600082146120ae57808061209790613fcc565b915050600a826120a79190613ddd565b9150612084565b60008167ffffffffffffffff8111156120f0577f4e487b7100000000000000000000000000000000000000000000000000000000600052604160045260246000fd5b6040519080825280601f01601f1916602001820160405280156121225781602001600182028036833780820191505090505b50905060008290505b600086146121fc576001816121409190613e68565b90506000600a80886121529190613ddd565b61215c9190613e0e565b876121679190613e68565b60306121739190613da6565b905060008160f81b9050808484815181106121b7577f4e487b7100000000000000000000000000000000000000000000000000000000600052603260045260246000fd5b60200101907effffffffffffffffffffffffffffffffffffffffffffffffffffffffffffff1916908160001a905350600a886121f39190613ddd565b9750505061212b565b819450505050505b919050565b60006010600084815260200190815260200160002060009054906101000a900473ffffffffffffffffffffffffffffffffffffffff16905060006011600085815260200190815260200160002054905061226382826126ac565b826012600083815260200190815260200160002081905550807faad5362ce528ed941024b95d4c18dfd49b8503e1f586a5c353631d98c2af41b7846040516122ab9190613c42565b60405180910390a250505050565b8173ffffffffffffffffffffffffffffffffffffffff168373ffffffffffffffffffffffffffffffffffffffff161415612328576040517f08c379a000000000000000000000000000000000000000000000000000000000815260040161231f90613a62565b60405180910390fd5b80600560008573ffffffffffffffffffffffffffffffffffffffff1673ffffffffffffffffffffffffffffffffffffffff16815260200190815260200160002060008473ffffffffffffffffffffffffffffffffffffffff1673ffffffffffffffffffffffffffffffffffffffff16815260200190815260200160002060006101000a81548160ff0219169083151502179055508173ffffffffffffffffffffffffffffffffffffffff168373ffffffffffffffffffffffffffffffffffffffff167f17307eab39ab6107e8899845ad3d59bd9653f200f220920489ca2b5937696c318360405161241991906138fc565b60405180910390a3505050565b612431848484611bba565b61243d848484846126ca565b61247c576040517f08c379a0000000000000000000000000000000000000000000000000000000008152600401612473906139c2565b60405180910390fd5b50505050565b606060405180602001604052806000815250905090565b60606124a4826119af565b6124e3576040517f08c379a00000000000000000000000000000000000000000000000000000000081526004016124da90613ba2565b60405180910390fd5b60006124ed612482565b9050600081511161250d5760405180602001604052806000815250612538565b8061251784612861565b604051602001612528929190613713565b6040516020818303038152906040525b915050919050565b60007f000000000000000000000000000000000000000000000000000000000000000073ffffffffffffffffffffffffffffffffffffffff16634000aea07f0000000000000000000000000000000000000000000000000000000000000000848660006040516020016125b4929190613932565b6040516020818303038152906040526040518463ffffffff1660e01b81526004016125e1939291906138be565b602060405180830381600087803b1580156125fb57600080fd5b505af115801561260f573d6000803e3d6000fd5b505050506040513d601f19601f820116820180604052508101906126339190613082565b506000612656846000306007600089815260200190815260200160002054612a0e565b9050600160076000868152602001908152602001600020546126789190613d50565b60076000868152602001908152602001600020819055506126998482612a4a565b91505092915050565b505050565b505050565b6126c6828260405180602001604052806000815250612a7d565b5050565b60006126eb8473ffffffffffffffffffffffffffffffffffffffff16612ad8565b15612854578373ffffffffffffffffffffffffffffffffffffffff1663150b7a02612714611a1b565b8786866040518563ffffffff1660e01b81526004016127369493929190613872565b602060405180830381600087803b15801561275057600080fd5b505af192505050801561278157506040513d601f19601f8201168201806040525081019061277e9190613139565b60015b612804573d80600081146127b1576040519150601f19603f3d011682016040523d82523d6000602084013e6127b6565b606091505b506000815114156127fc576040517f08c379a00000000000000000000000000000000000000000000000000000000081526004016127f3906139c2565b60405180910390fd5b805181602001fd5b63150b7a0260e01b7bffffffffffffffffffffffffffffffffffffffffffffffffffffffff1916817bffffffffffffffffffffffffffffffffffffffffffffffffffffffff191614915050612859565b600190505b949350505050565b606060008214156128a9576040518060400160405280600181526020017f30000000000000000000000000000000000000000000000000000000000000008152509050612a09565b600082905060005b600082146128db5780806128c490613fcc565b915050600a826128d49190613ddd565b91506128b1565b60008167ffffffffffffffff81111561291d577f4e487b7100000000000000000000000000000000000000000000000000000000600052604160045260246000fd5b6040519080825280601f01601f19166020018201604052801561294f5781602001600182028036833780820191505090505b5090505b60008514612a02576001826129689190613e68565b9150600a856129779190614029565b60306129839190613d50565b60f81b8183815181106129bf577f4e487b7100000000000000000000000000000000000000000000000000000000600052603260045260246000fd5b60200101907effffffffffffffffffffffffffffffffffffffffffffffffffffffffffffff1916908160001a905350600a856129fb9190613ddd565b9450612953565b8093505050505b919050565b600084848484604051602001612a27949392919061395b565b6040516020818303038152906040528051906020012060001c9050949350505050565b60008282604051602001612a5f9291906136d0565b60405160208183030381529060405280519060200120905092915050565b612a878383612afb565b612a9460008484846126ca565b612ad3576040517f08c379a0000000000000000000000000000000000000000000000000000000008152600401612aca906139c2565b60405180910390fd5b505050565b6000808273ffffffffffffffffffffffffffffffffffffffff163b119050919050565b600073ffffffffffffffffffffffffffffffffffffffff168273ffffffffffffffffffffffffffffffffffffffff161415612b6b576040517f08c379a0000000000000000000000000000000000000000000000000000000008152600401612b6290613b42565b60405180910390fd5b612b74816119af565b15612bb4576040517f08c379a0000000000000000000000000000000000000000000000000000000008152600401612bab90613a02565b60405180910390fd5b612bc0600083836126a2565b6001600360008473ffffffffffffffffffffffffffffffffffffffff1673ffffffffffffffffffffffffffffffffffffffff1681526020019081526020016000206000828254612c109190613d50565b92505081905550816002600083815260200190815260200160002060006101000a81548173ffffffffffffffffffffffffffffffffffffffff021916908373ffffffffffffffffffffffffffffffffffffffff160217905550808273ffffffffffffffffffffffffffffffffffffffff16600073ffffffffffffffffffffffffffffffffffffffff167fddf252ad1be2c89b69c2b068fc378daa952ba7f163c4a11628f55a4df523b3ef60405160405180910390a4612cd1600083836126a7565b5050565b828054612ce190613f69565b90600052602060002090601f016020900481019282612d035760008555612d4a565b82601f10612d1c57805160ff1916838001178555612d4a565b82800160010185558215612d4a579182015b82811115612d49578251825591602001919060010190612d2e565b5b509050612d579190612d5b565b5090565b5b80821115612d74576000816000905550600101612d5c565b5090565b6000612d8b612d8684613cab565b613c86565b905082815260208101848484011115612da357600080fd5b612dae848285613f27565b509392505050565b6000612dc9612dc484613cdc565b613c86565b905082815260208101848484011115612de157600080fd5b612dec848285613f27565b509392505050565b600081359050612e0381614852565b92915050565b600081359050612e1881614869565b92915050565b600081519050612e2d81614869565b92915050565b600081359050612e4281614880565b92915050565b600081359050612e5781614897565b92915050565b600081519050612e6c81614897565b92915050565b600082601f830112612e8357600080fd5b8135612e93848260208601612d78565b91505092915050565b600082601f830112612ead57600080fd5b8135612ebd848260208601612db6565b91505092915050565b600081359050612ed5816148ae565b92915050565b600060208284031215612eed57600080fd5b6000612efb84828501612df4565b91505092915050565b60008060408385031215612f1757600080fd5b6000612f2585828601612df4565b9250506020612f3685828601612df4565b9150509250929050565b600080600060608486031215612f5557600080fd5b6000612f6386828701612df4565b9350506020612f7486828701612df4565b9250506040612f8586828701612ec6565b9150509250925092565b60008060008060808587031215612fa557600080fd5b6000612fb387828801612df4565b9450506020612fc487828801612df4565b9350506040612fd587828801612ec6565b925050606085013567ffffffffffffffff811115612ff257600080fd5b612ffe87828801612e72565b91505092959194509250565b6000806040838503121561301d57600080fd5b600061302b85828601612df4565b925050602061303c85828601612e09565b9150509250929050565b6000806040838503121561305957600080fd5b600061306785828601612df4565b925050602061307885828601612ec6565b9150509250929050565b60006020828403121561309457600080fd5b60006130a284828501612e1e565b91505092915050565b6000602082840312156130bd57600080fd5b60006130cb84828501612e33565b91505092915050565b600080604083850312156130e757600080fd5b60006130f585828601612e33565b925050602061310685828601612ec6565b9150509250929050565b60006020828403121561312257600080fd5b600061313084828501612e48565b91505092915050565b60006020828403121561314b57600080fd5b600061315984828501612e5d565b91505092915050565b60006020828403121561317457600080fd5b600082013567ffffffffffffffff81111561318e57600080fd5b61319a84828501612e9c565b91505092915050565b6000602082840312156131b557600080fd5b60006131c384828501612ec6565b91505092915050565b6131d581613e9c565b82525050565b6131e481613eae565b82525050565b6131f381613eba565b82525050565b61320a61320582613eba565b614015565b82525050565b600061321b82613d0d565b6132258185613d23565b9350613235818560208601613f36565b61323e81614116565b840191505092915050565b600061325482613d18565b61325e8185613d34565b935061326e818560208601613f36565b61327781614116565b840191505092915050565b600061328d82613d18565b6132978185613d45565b93506132a7818560208601613f36565b80840191505092915050565b60006132c0603283613d34565b91506132cb82614127565b604082019050919050565b60006132e3602583613d34565b91506132ee82614176565b604082019050919050565b6000613306601c83613d34565b9150613311826141c5565b602082019050919050565b6000613329601f83613d34565b9150613334826141ee565b602082019050919050565b600061334c602483613d34565b915061335782614217565b604082019050919050565b600061336f601983613d34565b915061337a82614266565b602082019050919050565b6000613392601883613d34565b915061339d8261428f565b602082019050919050565b60006133b5602c83613d34565b91506133c0826142b8565b604082019050919050565b60006133d8601d83613d45565b91506133e382614307565b601d82019050919050565b60006133fb605783613d45565b915061340682614330565b605782019050919050565b600061341e600183613d45565b9150613429826143a5565b600182019050919050565b6000613441600383613d45565b915061344c826143ce565b600382019050919050565b6000613464603883613d34565b915061346f826143f7565b604082019050919050565b6000613487602a83613d34565b915061349282614446565b604082019050919050565b60006134aa602983613d34565b91506134b582614495565b604082019050919050565b60006134cd602e83613d34565b91506134d8826144e4565b604082019050919050565b60006134f0600283613d45565b91506134fb82614533565b600282019050919050565b6000613513602083613d34565b915061351e8261455c565b602082019050919050565b6000613536603183613d34565b915061354182614585565b604082019050919050565b6000613559602c83613d34565b9150613564826145d4565b604082019050919050565b600061357c603083613d45565b915061358782614623565b603082019050919050565b600061359f602f83613d34565b91506135aa82614672565b604082019050919050565b60006135c2601f83613d34565b91506135cd826146c1565b602082019050919050565b60006135e5602183613d34565b91506135f0826146ea565b604082019050919050565b6000613608603183613d34565b915061361382614739565b604082019050919050565b600061362b600283613d45565b915061363682614788565b600282019050919050565b600061364e600683613d45565b9150613659826147b1565b600682019050919050565b6000613671600983613d45565b915061367c826147da565b600982019050919050565b6000613694602983613d34565b915061369f82614803565b604082019050919050565b6136b381613f10565b82525050565b6136ca6136c582613f10565b61401f565b82525050565b60006136dc82856131f9565b6020820191506136ec82846136b9565b6020820191508190509392505050565b60006137088284613282565b915081905092915050565b600061371f8285613282565b915061372b8284613282565b91508190509392505050565b60006137438285613282565b915061374e826133cb565b915061375a8284613282565b915061376582613434565b91508190509392505050565b600061377d8286613282565b915061378882613411565b91506137948285613282565b915061379f82613411565b91506137ab8284613282565b91506137b682613411565b9150819050949350505050565b60006137cf8284613282565b91506137da82613641565b915081905092915050565b60006137f0826133ee565b91506137fc8284613282565b9150613807826134e3565b915081905092915050565b600061381d8261356f565b91506138298285613282565b915061383482613664565b91506138408284613282565b915061384b8261361e565b91508190509392505050565b600060208201905061386c60008301846131cc565b92915050565b600060808201905061388760008301876131cc565b61389460208301866131cc565b6138a160408301856136aa565b81810360608301526138b38184613210565b905095945050505050565b60006060820190506138d360008301866131cc565b6138e060208301856136aa565b81810360408301526138f28184613210565b9050949350505050565b600060208201905061391160008301846131db565b92915050565b600060208201905061392c60008301846131ea565b92915050565b600060408201905061394760008301856131ea565b61395460208301846136aa565b9392505050565b600060808201905061397060008301876131ea565b61397d60208301866136aa565b61398a60408301856131cc565b61399760608301846136aa565b95945050505050565b600060208201905081810360008301526139ba8184613249565b905092915050565b600060208201905081810360008301526139db816132b3565b9050919050565b600060208201905081810360008301526139fb816132d6565b9050919050565b60006020820190508181036000830152613a1b816132f9565b9050919050565b60006020820190508181036000830152613a3b8161331c565b9050919050565b60006020820190508181036000830152613a5b8161333f565b9050919050565b60006020820190508181036000830152613a7b81613362565b9050919050565b60006020820190508181036000830152613a9b81613385565b9050919050565b60006020820190508181036000830152613abb816133a8565b9050919050565b60006020820190508181036000830152613adb81613457565b9050919050565b60006020820190508181036000830152613afb8161347a565b9050919050565b60006020820190508181036000830152613b1b8161349d565b9050919050565b60006020820190508181036000830152613b3b816134c0565b9050919050565b60006020820190508181036000830152613b5b81613506565b9050919050565b60006020820190508181036000830152613b7b81613529565b9050919050565b60006020820190508181036000830152613b9b8161354c565b9050919050565b60006020820190508181036000830152613bbb81613592565b9050919050565b60006020820190508181036000830152613bdb816135b5565b9050919050565b60006020820190508181036000830152613bfb816135d8565b9050919050565b60006020820190508181036000830152613c1b816135fb565b9050919050565b60006020820190508181036000830152613c3b81613687565b9050919050565b6000602082019050613c5760008301846136aa565b92915050565b6000604082019050613c7260008301856136aa565b613c7f60208301846136aa565b9392505050565b6000613c90613ca1565b9050613c9c8282613f9b565b919050565b6000604051905090565b600067ffffffffffffffff821115613cc657613cc56140e7565b5b613ccf82614116565b9050602081019050919050565b600067ffffffffffffffff821115613cf757613cf66140e7565b5b613d0082614116565b9050602081019050919050565b600081519050919050565b600081519050919050565b600082825260208201905092915050565b600082825260208201905092915050565b600081905092915050565b6000613d5b82613f10565b9150613d6683613f10565b9250827fffffffffffffffffffffffffffffffffffffffffffffffffffffffffffffffff03821115613d9b57613d9a61405a565b5b828201905092915050565b6000613db182613f1a565b9150613dbc83613f1a565b92508260ff03821115613dd257613dd161405a565b5b828201905092915050565b6000613de882613f10565b9150613df383613f10565b925082613e0357613e02614089565b5b828204905092915050565b6000613e1982613f10565b9150613e2483613f10565b9250817fffffffffffffffffffffffffffffffffffffffffffffffffffffffffffffffff0483118215151615613e5d57613e5c61405a565b5b828202905092915050565b6000613e7382613f10565b9150613e7e83613f10565b925082821015613e9157613e9061405a565b5b828203905092915050565b6000613ea782613ef0565b9050919050565b60008115159050919050565b6000819050919050565b60007fffffffff0000000000000000000000000000000000000000000000000000000082169050919050565b600073ffffffffffffffffffffffffffffffffffffffff82169050919050565b6000819050919050565b600060ff82169050919050565b82818337600083830152505050565b60005b83811015613f54578082015181840152602081019050613f39565b83811115613f63576000848401525b50505050565b60006002820490506001821680613f8157607f821691505b60208210811415613f9557613f946140b8565b5b50919050565b613fa482614116565b810181811067ffffffffffffffff82111715613fc357613fc26140e7565b5b80604052505050565b6000613fd782613f10565b91507fffffffffffffffffffffffffffffffffffffffffffffffffffffffffffffffff82141561400a5761400961405a565b5b600182019050919050565b6000819050919050565b6000819050919050565b600061403482613f10565b915061403f83613f10565b92508261404f5761404e614089565b5b828206905092915050565b7f4e487b7100000000000000000000000000000000000000000000000000000000600052601160045260246000fd5b7f4e487b7100000000000000000000000000000000000000000000000000000000600052601260045260246000fd5b7f4e487b7100000000000000000000000000000000000000000000000000000000600052602260045260246000fd5b7f4e487b7100000000000000000000000000000000000000000000000000000000600052604160045260246000fd5b6000601f19601f8301169050919050565b7f4552433732313a207472616e7366657220746f206e6f6e20455243373231526560008201527f63656976657220696d706c656d656e7465720000000000000000000000000000602082015250565b7f4552433732313a207472616e736665722066726f6d20696e636f72726563742060008201527f6f776e6572000000000000000000000000000000000000000000000000000000602082015250565b7f4552433732313a20746f6b656e20616c7265616479206d696e74656400000000600082015250565b7f546f6b656e496420686173206e6f74206265656e206d696e7465642079657400600082015250565b7f4552433732313a207472616e7366657220746f20746865207a65726f2061646460008201527f7265737300000000000000000000000000000000000000000000000000000000602082015250565b7f4552433732313a20617070726f766520746f2063616c6c657200000000000000600082015250565b7f746f6b656e55524920697320616c726561647920736574210000000000000000600082015250565b7f4552433732313a206f70657261746f7220717565727920666f72206e6f6e657860008201527f697374656e7420746f6b656e0000000000000000000000000000000000000000602082015250565b7f272066696c6c3d277472616e73706172656e7427207374726f6b653d27000000600082015250565b7f7b226e616d65223a2022535647204e4654222c20226465736372697074696f6e60008201527f223a2022416e204e4654206261736564206f6e2053564721222c20226174747260208201527f696275746573223a2022222c2022696d616765223a2022000000000000000000604082015250565b7f2000000000000000000000000000000000000000000000000000000000000000600082015250565b7f272f3e0000000000000000000000000000000000000000000000000000000000600082015250565b7f4552433732313a20617070726f76652063616c6c6572206973206e6f74206f7760008201527f6e6572206e6f7220617070726f76656420666f7220616c6c0000000000000000602082015250565b7f4552433732313a2062616c616e636520717565727920666f7220746865207a6560008201527f726f206164647265737300000000000000000000000000000000000000000000602082015250565b7f4552433732313a206f776e657220717565727920666f72206e6f6e657869737460008201527f656e7420746f6b656e0000000000000000000000000000000000000000000000602082015250565b7f45524337323155524953746f726167653a2055524920736574206f66206e6f6e60008201527f6578697374656e7420746f6b656e000000000000000000000000000000000000602082015250565b7f227d000000000000000000000000000000000000000000000000000000000000600082015250565b7f4552433732313a206d696e7420746f20746865207a65726f2061646472657373600082015250565b7f45524337323155524953746f726167653a2055524920717565727920666f722060008201527f6e6f6e6578697374656e7420746f6b656e000000000000000000000000000000602082015250565b7f4552433732313a20617070726f76656420717565727920666f72206e6f6e657860008201527f697374656e7420746f6b656e0000000000000000000000000000000000000000602082015250565b7f3c73766720786d6c6e733d27687474703a2f2f7777772e77332e6f72672f323060008201527f30302f73766727206865696768743d2700000000000000000000000000000000602082015250565b7f4552433732314d657461646174613a2055524920717565727920666f72206e6f60008201527f6e6578697374656e7420746f6b656e0000000000000000000000000000000000602082015250565b7f4f6e6c7920565246436f6f7264696e61746f722063616e2066756c66696c6c00600082015250565b7f4552433732313a20617070726f76616c20746f2063757272656e74206f776e6560008201527f7200000000000000000000000000000000000000000000000000000000000000602082015250565b7f4552433732313a207472616e736665722063616c6c6572206973206e6f74206f60008201527f776e6572206e6f7220617070726f766564000000000000000000000000000000602082015250565b7f273e000000000000000000000000000000000000000000000000000000000000600082015250565b7f3c2f7376673e0000000000000000000000000000000000000000000000000000600082015250565b7f272077696474683d270000000000000000000000000000000000000000000000600082015250565b7f4e65656420746f207761697420666f7220636861696e6c696e6b20565246207460008201527f6f20726573706f6e640000000000000000000000000000000000000000000000602082015250565b61485b81613e9c565b811461486657600080fd5b50565b61487281613eae565b811461487d57600080fd5b50565b61488981613eba565b811461489457600080fd5b50565b6148a081613ec4565b81146148ab57600080fd5b50565b6148b781613f10565b81146148c257600080fd5b5056fe4142434445464748494a4b4c4d4e4f505152535455565758595a6162636465666768696a6b6c6d6e6f707172737475767778797a303132333435363738392b2fa26469706673582212208304538bf207c19538fea6aafcad66753bc627493528c27c7c62c6f392b6fa4164736f6c63430008010033",
  "devdoc": {
    "kind": "dev",
    "methods": {
      "approve(address,uint256)": {
        "details": "See {IERC721-approve}."
      },
      "balanceOf(address)": {
        "details": "See {IERC721-balanceOf}."
      },
      "getApproved(uint256)": {
        "details": "See {IERC721-getApproved}."
      },
      "isApprovedForAll(address,address)": {
        "details": "See {IERC721-isApprovedForAll}."
      },
      "name()": {
        "details": "See {IERC721Metadata-name}."
      },
      "ownerOf(uint256)": {
        "details": "See {IERC721-ownerOf}."
      },
      "safeTransferFrom(address,address,uint256)": {
        "details": "See {IERC721-safeTransferFrom}."
      },
      "safeTransferFrom(address,address,uint256,bytes)": {
        "details": "See {IERC721-safeTransferFrom}."
      },
      "setApprovalForAll(address,bool)": {
        "details": "See {IERC721-setApprovalForAll}."
      },
      "supportsInterface(bytes4)": {
        "details": "See {IERC165-supportsInterface}."
      },
      "symbol()": {
        "details": "See {IERC721Metadata-symbol}."
      },
      "tokenURI(uint256)": {
        "details": "See {IERC721Metadata-tokenURI}."
      },
      "transferFrom(address,address,uint256)": {
        "details": "See {IERC721-transferFrom}."
      }
    },
    "version": 1
  },
  "userdoc": {
    "kind": "user",
    "methods": {},
    "version": 1
  },
  "storageLayout": {
    "storage": [
      {
        "astId": 291,
        "contract": "contracts/RandomSVG.sol:RandomSVG",
        "label": "_name",
        "offset": 0,
        "slot": "0",
        "type": "t_string_storage"
      },
      {
        "astId": 293,
        "contract": "contracts/RandomSVG.sol:RandomSVG",
        "label": "_symbol",
        "offset": 0,
        "slot": "1",
        "type": "t_string_storage"
      },
      {
        "astId": 297,
        "contract": "contracts/RandomSVG.sol:RandomSVG",
        "label": "_owners",
        "offset": 0,
        "slot": "2",
        "type": "t_mapping(t_uint256,t_address)"
      },
      {
        "astId": 301,
        "contract": "contracts/RandomSVG.sol:RandomSVG",
        "label": "_balances",
        "offset": 0,
        "slot": "3",
        "type": "t_mapping(t_address,t_uint256)"
      },
      {
        "astId": 305,
        "contract": "contracts/RandomSVG.sol:RandomSVG",
        "label": "_tokenApprovals",
        "offset": 0,
        "slot": "4",
        "type": "t_mapping(t_uint256,t_address)"
      },
      {
        "astId": 311,
        "contract": "contracts/RandomSVG.sol:RandomSVG",
        "label": "_operatorApprovals",
        "offset": 0,
        "slot": "5",
        "type": "t_mapping(t_address,t_mapping(t_address,t_bool))"
      },
      {
        "astId": 1278,
        "contract": "contracts/RandomSVG.sol:RandomSVG",
        "label": "_tokenURIs",
        "offset": 0,
        "slot": "6",
        "type": "t_mapping(t_uint256,t_string_storage)"
      },
      {
        "astId": 79,
        "contract": "contracts/RandomSVG.sol:RandomSVG",
        "label": "nonces",
        "offset": 0,
        "slot": "7",
        "type": "t_mapping(t_bytes32,t_uint256)"
      },
      {
        "astId": 2102,
        "contract": "contracts/RandomSVG.sol:RandomSVG",
        "label": "tokenCounter",
        "offset": 0,
        "slot": "8",
        "type": "t_uint256"
      },
      {
        "astId": 2104,
        "contract": "contracts/RandomSVG.sol:RandomSVG",
        "label": "keyHash",
        "offset": 0,
        "slot": "9",
        "type": "t_bytes32"
      },
      {
        "astId": 2106,
        "contract": "contracts/RandomSVG.sol:RandomSVG",
        "label": "fee",
        "offset": 0,
        "slot": "10",
        "type": "t_uint256"
      },
      {
        "astId": 2108,
        "contract": "contracts/RandomSVG.sol:RandomSVG",
        "label": "maxNumberOfPaths",
        "offset": 0,
        "slot": "11",
        "type": "t_uint256"
      },
      {
        "astId": 2110,
        "contract": "contracts/RandomSVG.sol:RandomSVG",
        "label": "maxNumberOfPathCommands",
        "offset": 0,
        "slot": "12",
        "type": "t_uint256"
      },
      {
        "astId": 2112,
        "contract": "contracts/RandomSVG.sol:RandomSVG",
        "label": "size",
        "offset": 0,
        "slot": "13",
        "type": "t_uint256"
      },
      {
        "astId": 2115,
        "contract": "contracts/RandomSVG.sol:RandomSVG",
        "label": "pathCommands",
        "offset": 0,
        "slot": "14",
        "type": "t_array(t_string_storage)dyn_storage"
      },
      {
        "astId": 2118,
        "contract": "contracts/RandomSVG.sol:RandomSVG",
        "label": "colors",
        "offset": 0,
        "slot": "15",
        "type": "t_array(t_string_storage)dyn_storage"
      },
      {
        "astId": 2122,
        "contract": "contracts/RandomSVG.sol:RandomSVG",
        "label": "requestIdToSender",
        "offset": 0,
        "slot": "16",
        "type": "t_mapping(t_bytes32,t_address)"
      },
      {
        "astId": 2126,
        "contract": "contracts/RandomSVG.sol:RandomSVG",
        "label": "requestIdToTokenId",
        "offset": 0,
        "slot": "17",
        "type": "t_mapping(t_bytes32,t_uint256)"
      },
      {
        "astId": 2130,
        "contract": "contracts/RandomSVG.sol:RandomSVG",
        "label": "tokenIdToRandomNumber",
        "offset": 0,
        "slot": "18",
        "type": "t_mapping(t_uint256,t_uint256)"
      }
    ],
    "types": {
      "t_address": {
        "encoding": "inplace",
        "label": "address",
        "numberOfBytes": "20"
      },
      "t_array(t_string_storage)dyn_storage": {
        "base": "t_string_storage",
        "encoding": "dynamic_array",
        "label": "string[]",
        "numberOfBytes": "32"
      },
      "t_bool": {
        "encoding": "inplace",
        "label": "bool",
        "numberOfBytes": "1"
      },
      "t_bytes32": {
        "encoding": "inplace",
        "label": "bytes32",
        "numberOfBytes": "32"
      },
      "t_mapping(t_address,t_bool)": {
        "encoding": "mapping",
        "key": "t_address",
        "label": "mapping(address => bool)",
        "numberOfBytes": "32",
        "value": "t_bool"
      },
      "t_mapping(t_address,t_mapping(t_address,t_bool))": {
        "encoding": "mapping",
        "key": "t_address",
        "label": "mapping(address => mapping(address => bool))",
        "numberOfBytes": "32",
        "value": "t_mapping(t_address,t_bool)"
      },
      "t_mapping(t_address,t_uint256)": {
        "encoding": "mapping",
        "key": "t_address",
        "label": "mapping(address => uint256)",
        "numberOfBytes": "32",
        "value": "t_uint256"
      },
      "t_mapping(t_bytes32,t_address)": {
        "encoding": "mapping",
        "key": "t_bytes32",
        "label": "mapping(bytes32 => address)",
        "numberOfBytes": "32",
        "value": "t_address"
      },
      "t_mapping(t_bytes32,t_uint256)": {
        "encoding": "mapping",
        "key": "t_bytes32",
        "label": "mapping(bytes32 => uint256)",
        "numberOfBytes": "32",
        "value": "t_uint256"
      },
      "t_mapping(t_uint256,t_address)": {
        "encoding": "mapping",
        "key": "t_uint256",
        "label": "mapping(uint256 => address)",
        "numberOfBytes": "32",
        "value": "t_address"
      },
      "t_mapping(t_uint256,t_string_storage)": {
        "encoding": "mapping",
        "key": "t_uint256",
        "label": "mapping(uint256 => string)",
        "numberOfBytes": "32",
        "value": "t_string_storage"
      },
      "t_mapping(t_uint256,t_uint256)": {
        "encoding": "mapping",
        "key": "t_uint256",
        "label": "mapping(uint256 => uint256)",
        "numberOfBytes": "32",
        "value": "t_uint256"
      },
      "t_string_storage": {
        "encoding": "bytes",
        "label": "string",
        "numberOfBytes": "32"
      },
      "t_uint256": {
        "encoding": "inplace",
        "label": "uint256",
        "numberOfBytes": "32"
      }
    }
  }
}