{
  "address": "0xE6756dfE53E876EBE388fa376f12E3e262C4785b",
  "abi": [
    {
      "inputs": [],
      "stateMutability": "nonpayable",
      "type": "constructor"
    },
    {
      "anonymous": false,
      "inputs": [
        {
          "indexed": true,
          "internalType": "address",
          "name": "owner",
          "type": "address"
        },
        {
          "indexed": true,
          "internalType": "address",
          "name": "approved",
          "type": "address"
        },
        {
          "indexed": true,
          "internalType": "uint256",
          "name": "tokenId",
          "type": "uint256"
        }
      ],
      "name": "Approval",
      "type": "event"
    },
    {
      "anonymous": false,
      "inputs": [
        {
          "indexed": true,
          "internalType": "address",
          "name": "owner",
          "type": "address"
        },
        {
          "indexed": true,
          "internalType": "address",
          "name": "operator",
          "type": "address"
        },
        {
          "indexed": false,
          "internalType": "bool",
          "name": "approved",
          "type": "bool"
        }
      ],
      "name": "ApprovalForAll",
      "type": "event"
    },
    {
      "anonymous": false,
      "inputs": [
        {
          "indexed": true,
          "internalType": "uint256",
          "name": "tokenId",
          "type": "uint256"
        },
        {
          "indexed": false,
          "internalType": "string",
          "name": "tokenURI",
          "type": "string"
        }
      ],
      "name": "CreatedSVGNFT",
      "type": "event"
    },
    {
      "anonymous": false,
      "inputs": [
        {
          "indexed": true,
          "internalType": "address",
          "name": "from",
          "type": "address"
        },
        {
          "indexed": true,
          "internalType": "address",
          "name": "to",
          "type": "address"
        },
        {
          "indexed": true,
          "internalType": "uint256",
          "name": "tokenId",
          "type": "uint256"
        }
      ],
      "name": "Transfer",
      "type": "event"
    },
    {
      "inputs": [
        {
          "internalType": "address",
          "name": "to",
          "type": "address"
        },
        {
          "internalType": "uint256",
          "name": "tokenId",
          "type": "uint256"
        }
      ],
      "name": "approve",
      "outputs": [],
      "stateMutability": "nonpayable",
      "type": "function"
    },
    {
      "inputs": [
        {
          "internalType": "address",
          "name": "owner",
          "type": "address"
        }
      ],
      "name": "balanceOf",
      "outputs": [
        {
          "internalType": "uint256",
          "name": "",
          "type": "uint256"
        }
      ],
      "stateMutability": "view",
      "type": "function"
    },
    {
      "inputs": [
        {
          "internalType": "string",
          "name": "svg",
          "type": "string"
        }
      ],
      "name": "create",
      "outputs": [],
      "stateMutability": "nonpayable",
      "type": "function"
    },
    {
      "inputs": [
        {
          "internalType": "string",
          "name": "imageURI",
          "type": "string"
        }
      ],
      "name": "formatTokenURI",
      "outputs": [
        {
          "internalType": "string",
          "name": "",
          "type": "string"
        }
      ],
      "stateMutability": "pure",
      "type": "function"
    },
    {
      "inputs": [
        {
          "internalType": "uint256",
          "name": "tokenId",
          "type": "uint256"
        }
      ],
      "name": "getApproved",
      "outputs": [
        {
          "internalType": "address",
          "name": "",
          "type": "address"
        }
      ],
      "stateMutability": "view",
      "type": "function"
    },
    {
      "inputs": [
        {
          "internalType": "address",
          "name": "owner",
          "type": "address"
        },
        {
          "internalType": "address",
          "name": "operator",
          "type": "address"
        }
      ],
      "name": "isApprovedForAll",
      "outputs": [
        {
          "internalType": "bool",
          "name": "",
          "type": "bool"
        }
      ],
      "stateMutability": "view",
      "type": "function"
    },
    {
      "inputs": [],
      "name": "name",
      "outputs": [
        {
          "internalType": "string",
          "name": "",
          "type": "string"
        }
      ],
      "stateMutability": "view",
      "type": "function"
    },
    {
      "inputs": [
        {
          "internalType": "uint256",
          "name": "tokenId",
          "type": "uint256"
        }
      ],
      "name": "ownerOf",
      "outputs": [
        {
          "internalType": "address",
          "name": "",
          "type": "address"
        }
      ],
      "stateMutability": "view",
      "type": "function"
    },
    {
      "inputs": [
        {
          "internalType": "address",
          "name": "from",
          "type": "address"
        },
        {
          "internalType": "address",
          "name": "to",
          "type": "address"
        },
        {
          "internalType": "uint256",
          "name": "tokenId",
          "type": "uint256"
        }
      ],
      "name": "safeTransferFrom",
      "outputs": [],
      "stateMutability": "nonpayable",
      "type": "function"
    },
    {
      "inputs": [
        {
          "internalType": "address",
          "name": "from",
          "type": "address"
        },
        {
          "internalType": "address",
          "name": "to",
          "type": "address"
        },
        {
          "internalType": "uint256",
          "name": "tokenId",
          "type": "uint256"
        },
        {
          "internalType": "bytes",
          "name": "_data",
          "type": "bytes"
        }
      ],
      "name": "safeTransferFrom",
      "outputs": [],
      "stateMutability": "nonpayable",
      "type": "function"
    },
    {
      "inputs": [
        {
          "internalType": "address",
          "name": "operator",
          "type": "address"
        },
        {
          "internalType": "bool",
          "name": "approved",
          "type": "bool"
        }
      ],
      "name": "setApprovalForAll",
      "outputs": [],
      "stateMutability": "nonpayable",
      "type": "function"
    },
    {
      "inputs": [
        {
          "internalType": "bytes4",
          "name": "interfaceId",
          "type": "bytes4"
        }
      ],
      "name": "supportsInterface",
      "outputs": [
        {
          "internalType": "bool",
          "name": "",
          "type": "bool"
        }
      ],
      "stateMutability": "view",
      "type": "function"
    },
    {
      "inputs": [
        {
          "internalType": "string",
          "name": "svg",
          "type": "string"
        }
      ],
      "name": "svgToImageURI",
      "outputs": [
        {
          "internalType": "string",
          "name": "",
          "type": "string"
        }
      ],
      "stateMutability": "pure",
      "type": "function"
    },
    {
      "inputs": [],
      "name": "symbol",
      "outputs": [
        {
          "internalType": "string",
          "name": "",
          "type": "string"
        }
      ],
      "stateMutability": "view",
      "type": "function"
    },
    {
      "inputs": [],
      "name": "tokenCounter",
      "outputs": [
        {
          "internalType": "uint256",
          "name": "",
          "type": "uint256"
        }
      ],
      "stateMutability": "view",
      "type": "function"
    },
    {
      "inputs": [
        {
          "internalType": "uint256",
          "name": "tokenId",
          "type": "uint256"
        }
      ],
      "name": "tokenURI",
      "outputs": [
        {
          "internalType": "string",
          "name": "",
          "type": "string"
        }
      ],
      "stateMutability": "view",
      "type": "function"
    },
    {
      "inputs": [
        {
          "internalType": "address",
          "name": "from",
          "type": "address"
        },
        {
          "internalType": "address",
          "name": "to",
          "type": "address"
        },
        {
          "internalType": "uint256",
          "name": "tokenId",
          "type": "uint256"
        }
      ],
      "name": "transferFrom",
      "outputs": [],
      "stateMutability": "nonpayable",
      "type": "function"
    }
  ],
  "transactionHash": "0xd55348d9f1dde20337710d0ce5eb5d83f8d22911167ec77d0af471ab9fa45959",
  "args": [],
  "numDeployments": 1,
  "solcInputHash": "d082fa7e81de7fe0f90fd62cf20526b8",
  "bytecode": "0x60806040523480156200001157600080fd5b506040518060400160405280600681526020017f5356474e465400000000000000000000000000000000000000000000000000008152506040518060400160405280600681526020017f7376674e46540000000000000000000000000000000000000000000000000000815250816000908051906020019062000096929190620000c0565b508060019080519060200190620000af929190620000c0565b5050506000600781905550620001d5565b828054620000ce9062000170565b90600052602060002090601f016020900481019282620000f257600085556200013e565b82601f106200010d57805160ff19168380011785556200013e565b828001600101855582156200013e579182015b828111156200013d57825182559160200191906001019062000120565b5b5090506200014d919062000151565b5090565b5b808211156200016c57600081600090555060010162000152565b5090565b600060028204905060018216806200018957607f821691505b60208210811415620001a0576200019f620001a6565b5b50919050565b7f4e487b7100000000000000000000000000000000000000000000000000000000600052602260045260246000fd5b61315480620001e56000396000f3fe608060405234801561001057600080fd5b506004361061010b5760003560e01c806370a08231116100a2578063b6a46b3b11610071578063b6a46b3b146102dc578063b88d4fde146102f8578063c87b56dd14610314578063d082e38114610344578063e985e9c5146103625761010b565b806370a082311461024257806371aee1931461027257806395d89b41146102a2578063a22cb465146102c05761010b565b806323b872dd116100de57806323b872dd146101aa57806330d871c6146101c657806342842e0e146101f65780636352211e146102125761010b565b806301ffc9a71461011057806306fdde0314610140578063081812fc1461015e578063095ea7b31461018e575b600080fd5b61012a60048036038101906101259190611ffe565b610392565b60405161013791906124cf565b60405180910390f35b610148610474565b60405161015591906124ea565b60405180910390f35b61017860048036038101906101739190612091565b610506565b6040516101859190612468565b60405180910390f35b6101a860048036038101906101a39190611fc2565b61058b565b005b6101c460048036038101906101bf9190611ebc565b6106a3565b005b6101e060048036038101906101db9190612050565b610703565b6040516101ed91906124ea565b60405180910390f35b610210600480360381019061020b9190611ebc565b61079c565b005b61022c60048036038101906102279190612091565b6107bc565b6040516102399190612468565b60405180910390f35b61025c60048036038101906102579190611e57565b61086e565b604051610269919061270c565b60405180910390f35b61028c60048036038101906102879190612050565b610926565b60405161029991906124ea565b60405180910390f35b6102aa6109c5565b6040516102b791906124ea565b60405180910390f35b6102da60048036038101906102d59190611f86565b610a57565b005b6102f660048036038101906102f19190612050565b610a6d565b005b610312600480360381019061030d9190611f0b565b610af3565b005b61032e60048036038101906103299190612091565b610b55565b60405161033b91906124ea565b60405180910390f35b61034c610ca7565b604051610359919061270c565b60405180910390f35b61037c60048036038101906103779190611e80565b610cad565b60405161038991906124cf565b60405180910390f35b60007f80ac58cd000000000000000000000000000000000000000000000000000000007bffffffffffffffffffffffffffffffffffffffffffffffffffffffff1916827bffffffffffffffffffffffffffffffffffffffffffffffffffffffff1916148061045d57507f5b5e139f000000000000000000000000000000000000000000000000000000007bffffffffffffffffffffffffffffffffffffffffffffffffffffffff1916827bffffffffffffffffffffffffffffffffffffffffffffffffffffffff1916145b8061046d575061046c82610d41565b5b9050919050565b606060008054610483906129bc565b80601f01602080910402602001604051908101604052809291908181526020018280546104af906129bc565b80156104fc5780601f106104d1576101008083540402835291602001916104fc565b820191906000526020600020905b8154815290600101906020018083116104df57829003601f168201915b5050505050905090565b600061051182610dab565b610550576040517f08c379a00000000000000000000000000000000000000000000000000000000081526004016105479061268c565b60405180910390fd5b6004600083815260200190815260200160002060009054906101000a900473ffffffffffffffffffffffffffffffffffffffff169050919050565b6000610596826107bc565b90508073ffffffffffffffffffffffffffffffffffffffff168373ffffffffffffffffffffffffffffffffffffffff161415610607576040517f08c379a00000000000000000000000000000000000000000000000000000000081526004016105fe906126cc565b60405180910390fd5b8073ffffffffffffffffffffffffffffffffffffffff16610626610e17565b73ffffffffffffffffffffffffffffffffffffffff16148061065557506106548161064f610e17565b610cad565b5b610694576040517f08c379a000000000000000000000000000000000000000000000000000000000815260040161068b906125cc565b60405180910390fd5b61069e8383610e1f565b505050565b6106b46106ae610e17565b82610ed8565b6106f3576040517f08c379a00000000000000000000000000000000000000000000000000000000081526004016106ea906126ec565b60405180910390fd5b6106fe838383610fb6565b505050565b606060006040518060400160405280601a81526020017f646174613a696d6167652f7376672b786d6c3b6261736536342c00000000000081525090506000610769846040516020016107559190612400565b60405160208183030381529060405261121d565b905060008282604051602001610780929190612417565b6040516020818303038152906040529050809350505050919050565b6107b783838360405180602001604052806000815250610af3565b505050565b6000806002600084815260200190815260200160002060009054906101000a900473ffffffffffffffffffffffffffffffffffffffff169050600073ffffffffffffffffffffffffffffffffffffffff168173ffffffffffffffffffffffffffffffffffffffff161415610865576040517f08c379a000000000000000000000000000000000000000000000000000000000815260040161085c9061260c565b60405180910390fd5b80915050919050565b60008073ffffffffffffffffffffffffffffffffffffffff168273ffffffffffffffffffffffffffffffffffffffff1614156108df576040517f08c379a00000000000000000000000000000000000000000000000000000000081526004016108d6906125ec565b60405180910390fd5b600360008373ffffffffffffffffffffffffffffffffffffffff1673ffffffffffffffffffffffffffffffffffffffff168152602001908152602001600020549050919050565b606060008260405160200161093b919061243b565b604051602081830303815290604052905060006109578261121d565b905060006040518060400160405280601d81526020017f646174613a6170706c69636174696f6e2f6a736f6e3b6261736536342c0000008152509050600081836040516020016109a8929190612417565b604051602081830303815290604052905080945050505050919050565b6060600180546109d4906129bc565b80601f0160208091040260200160405190810160405280929190818152602001828054610a00906129bc565b8015610a4d5780601f10610a2257610100808354040283529160200191610a4d565b820191906000526020600020905b815481529060010190602001808311610a3057829003601f168201915b5050505050905090565b610a69610a62610e17565b83836113bc565b5050565b610a7933600754611529565b6000610a8482610703565b90506000610a9182610926565b9050610a9f60075482611547565b6001600754610aae91906127f1565b6007819055506007547ff5acc616aa8ecd00e5d76674d7812f9c3c3571d662c9fba4499deefa6d0be12d82604051610ae691906124ea565b60405180910390a2505050565b610b04610afe610e17565b83610ed8565b610b43576040517f08c379a0000000000000000000000000000000000000000000000000000000008152600401610b3a906126ec565b60405180910390fd5b610b4f848484846115bb565b50505050565b6060610b6082610dab565b610b9f576040517f08c379a0000000000000000000000000000000000000000000000000000000008152600401610b969061266c565b60405180910390fd5b6000600660008481526020019081526020016000208054610bbf906129bc565b80601f0160208091040260200160405190810160405280929190818152602001828054610beb906129bc565b8015610c385780601f10610c0d57610100808354040283529160200191610c38565b820191906000526020600020905b815481529060010190602001808311610c1b57829003601f168201915b505050505090506000610c49611617565b9050600081511415610c5f578192505050610ca2565b600082511115610c94578082604051602001610c7c929190612417565b60405160208183030381529060405292505050610ca2565b610c9d8461162e565b925050505b919050565b60075481565b6000600560008473ffffffffffffffffffffffffffffffffffffffff1673ffffffffffffffffffffffffffffffffffffffff16815260200190815260200160002060008373ffffffffffffffffffffffffffffffffffffffff1673ffffffffffffffffffffffffffffffffffffffff16815260200190815260200160002060009054906101000a900460ff16905092915050565b60007f01ffc9a7000000000000000000000000000000000000000000000000000000007bffffffffffffffffffffffffffffffffffffffffffffffffffffffff1916827bffffffffffffffffffffffffffffffffffffffffffffffffffffffff1916149050919050565b60008073ffffffffffffffffffffffffffffffffffffffff166002600084815260200190815260200160002060009054906101000a900473ffffffffffffffffffffffffffffffffffffffff1673ffffffffffffffffffffffffffffffffffffffff1614159050919050565b600033905090565b816004600083815260200190815260200160002060006101000a81548173ffffffffffffffffffffffffffffffffffffffff021916908373ffffffffffffffffffffffffffffffffffffffff160217905550808273ffffffffffffffffffffffffffffffffffffffff16610e92836107bc565b73ffffffffffffffffffffffffffffffffffffffff167f8c5be1e5ebec7d5bd14f71427d1e84f3dd0314c0f7b2291e5b200ac8c7c3b92560405160405180910390a45050565b6000610ee382610dab565b610f22576040517f08c379a0000000000000000000000000000000000000000000000000000000008152600401610f19906125ac565b60405180910390fd5b6000610f2d836107bc565b90508073ffffffffffffffffffffffffffffffffffffffff168473ffffffffffffffffffffffffffffffffffffffff161480610f9c57508373ffffffffffffffffffffffffffffffffffffffff16610f8484610506565b73ffffffffffffffffffffffffffffffffffffffff16145b80610fad5750610fac8185610cad565b5b91505092915050565b8273ffffffffffffffffffffffffffffffffffffffff16610fd6826107bc565b73ffffffffffffffffffffffffffffffffffffffff161461102c576040517f08c379a00000000000000000000000000000000000000000000000000000000081526004016110239061252c565b60405180910390fd5b600073ffffffffffffffffffffffffffffffffffffffff168273ffffffffffffffffffffffffffffffffffffffff16141561109c576040517f08c379a00000000000000000000000000000000000000000000000000000000081526004016110939061256c565b60405180910390fd5b6110a78383836116d5565b6110b2600082610e1f565b6001600360008573ffffffffffffffffffffffffffffffffffffffff1673ffffffffffffffffffffffffffffffffffffffff168152602001908152602001600020600082825461110291906128d2565b925050819055506001600360008473ffffffffffffffffffffffffffffffffffffffff1673ffffffffffffffffffffffffffffffffffffffff168152602001908152602001600020600082825461115991906127f1565b92505081905550816002600083815260200190815260200160002060006101000a81548173ffffffffffffffffffffffffffffffffffffffff021916908373ffffffffffffffffffffffffffffffffffffffff160217905550808273ffffffffffffffffffffffffffffffffffffffff168473ffffffffffffffffffffffffffffffffffffffff167fddf252ad1be2c89b69c2b068fc378daa952ba7f163c4a11628f55a4df523b3ef60405160405180910390a46112188383836116da565b505050565b6060600082511415611240576040518060200160405280600081525090506113b7565b60006040518060600160405280604081526020016130df604091399050600060036002855161126f91906127f1565b6112799190612847565b60046112859190612878565b9050600060208261129691906127f1565b67ffffffffffffffff8111156112d5577f4e487b7100000000000000000000000000000000000000000000000000000000600052604160045260246000fd5b6040519080825280601f01601f1916602001820160405280156113075781602001600182028036833780820191505090505b509050818152600183018586518101602084015b81831015611376576003830192508251603f8160121c168501518253600182019150603f81600c1c168501518253600182019150603f8160061c168501518253600182019150603f811685015182536001820191505061131b565b60038951066001811461139057600281146113a0576113ab565b613d3d60f01b60028303526113ab565b603d60f81b60018303525b50505050508093505050505b919050565b8173ffffffffffffffffffffffffffffffffffffffff168373ffffffffffffffffffffffffffffffffffffffff16141561142b576040517f08c379a00000000000000000000000000000000000000000000000000000000081526004016114229061258c565b60405180910390fd5b80600560008573ffffffffffffffffffffffffffffffffffffffff1673ffffffffffffffffffffffffffffffffffffffff16815260200190815260200160002060008473ffffffffffffffffffffffffffffffffffffffff1673ffffffffffffffffffffffffffffffffffffffff16815260200190815260200160002060006101000a81548160ff0219169083151502179055508173ffffffffffffffffffffffffffffffffffffffff168373ffffffffffffffffffffffffffffffffffffffff167f17307eab39ab6107e8899845ad3d59bd9653f200f220920489ca2b5937696c318360405161151c91906124cf565b60405180910390a3505050565b6115438282604051806020016040528060008152506116df565b5050565b61155082610dab565b61158f576040517f08c379a00000000000000000000000000000000000000000000000000000000081526004016115869061262c565b60405180910390fd5b806006600084815260200190815260200160002090805190602001906115b6929190611c7b565b505050565b6115c6848484610fb6565b6115d28484848461173a565b611611576040517f08c379a00000000000000000000000000000000000000000000000000000000081526004016116089061250c565b60405180910390fd5b50505050565b606060405180602001604052806000815250905090565b606061163982610dab565b611678576040517f08c379a000000000000000000000000000000000000000000000000000000000815260040161166f906126ac565b60405180910390fd5b6000611682611617565b905060008151116116a257604051806020016040528060008152506116cd565b806116ac846118d1565b6040516020016116bd929190612417565b6040516020818303038152906040525b915050919050565b505050565b505050565b6116e98383611a7e565b6116f6600084848461173a565b611735576040517f08c379a000000000000000000000000000000000000000000000000000000000815260040161172c9061250c565b60405180910390fd5b505050565b600061175b8473ffffffffffffffffffffffffffffffffffffffff16611c58565b156118c4578373ffffffffffffffffffffffffffffffffffffffff1663150b7a02611784610e17565b8786866040518563ffffffff1660e01b81526004016117a69493929190612483565b602060405180830381600087803b1580156117c057600080fd5b505af19250505080156117f157506040513d601f19601f820116820180604052508101906117ee9190612027565b60015b611874573d8060008114611821576040519150601f19603f3d011682016040523d82523d6000602084013e611826565b606091505b5060008151141561186c576040517f08c379a00000000000000000000000000000000000000000000000000000000081526004016118639061250c565b60405180910390fd5b805181602001fd5b63150b7a0260e01b7bffffffffffffffffffffffffffffffffffffffffffffffffffffffff1916817bffffffffffffffffffffffffffffffffffffffffffffffffffffffff1916149150506118c9565b600190505b949350505050565b60606000821415611919576040518060400160405280600181526020017f30000000000000000000000000000000000000000000000000000000000000008152509050611a79565b600082905060005b6000821461194b57808061193490612a1f565b915050600a826119449190612847565b9150611921565b60008167ffffffffffffffff81111561198d577f4e487b7100000000000000000000000000000000000000000000000000000000600052604160045260246000fd5b6040519080825280601f01601f1916602001820160405280156119bf5781602001600182028036833780820191505090505b5090505b60008514611a72576001826119d891906128d2565b9150600a856119e79190612a68565b60306119f391906127f1565b60f81b818381518110611a2f577f4e487b7100000000000000000000000000000000000000000000000000000000600052603260045260246000fd5b60200101907effffffffffffffffffffffffffffffffffffffffffffffffffffffffffffff1916908160001a905350600a85611a6b9190612847565b94506119c3565b8093505050505b919050565b600073ffffffffffffffffffffffffffffffffffffffff168273ffffffffffffffffffffffffffffffffffffffff161415611aee576040517f08c379a0000000000000000000000000000000000000000000000000000000008152600401611ae59061264c565b60405180910390fd5b611af781610dab565b15611b37576040517f08c379a0000000000000000000000000000000000000000000000000000000008152600401611b2e9061254c565b60405180910390fd5b611b43600083836116d5565b6001600360008473ffffffffffffffffffffffffffffffffffffffff1673ffffffffffffffffffffffffffffffffffffffff1681526020019081526020016000206000828254611b9391906127f1565b92505081905550816002600083815260200190815260200160002060006101000a81548173ffffffffffffffffffffffffffffffffffffffff021916908373ffffffffffffffffffffffffffffffffffffffff160217905550808273ffffffffffffffffffffffffffffffffffffffff16600073ffffffffffffffffffffffffffffffffffffffff167fddf252ad1be2c89b69c2b068fc378daa952ba7f163c4a11628f55a4df523b3ef60405160405180910390a4611c54600083836116da565b5050565b6000808273ffffffffffffffffffffffffffffffffffffffff163b119050919050565b828054611c87906129bc565b90600052602060002090601f016020900481019282611ca95760008555611cf0565b82601f10611cc257805160ff1916838001178555611cf0565b82800160010185558215611cf0579182015b82811115611cef578251825591602001919060010190611cd4565b5b509050611cfd9190611d01565b5090565b5b80821115611d1a576000816000905550600101611d02565b5090565b6000611d31611d2c8461274c565b612727565b905082815260208101848484011115611d4957600080fd5b611d5484828561297a565b509392505050565b6000611d6f611d6a8461277d565b612727565b905082815260208101848484011115611d8757600080fd5b611d9284828561297a565b509392505050565b600081359050611da981613082565b92915050565b600081359050611dbe81613099565b92915050565b600081359050611dd3816130b0565b92915050565b600081519050611de8816130b0565b92915050565b600082601f830112611dff57600080fd5b8135611e0f848260208601611d1e565b91505092915050565b600082601f830112611e2957600080fd5b8135611e39848260208601611d5c565b91505092915050565b600081359050611e51816130c7565b92915050565b600060208284031215611e6957600080fd5b6000611e7784828501611d9a565b91505092915050565b60008060408385031215611e9357600080fd5b6000611ea185828601611d9a565b9250506020611eb285828601611d9a565b9150509250929050565b600080600060608486031215611ed157600080fd5b6000611edf86828701611d9a565b9350506020611ef086828701611d9a565b9250506040611f0186828701611e42565b9150509250925092565b60008060008060808587031215611f2157600080fd5b6000611f2f87828801611d9a565b9450506020611f4087828801611d9a565b9350506040611f5187828801611e42565b925050606085013567ffffffffffffffff811115611f6e57600080fd5b611f7a87828801611dee565b91505092959194509250565b60008060408385031215611f9957600080fd5b6000611fa785828601611d9a565b9250506020611fb885828601611daf565b9150509250929050565b60008060408385031215611fd557600080fd5b6000611fe385828601611d9a565b9250506020611ff485828601611e42565b9150509250929050565b60006020828403121561201057600080fd5b600061201e84828501611dc4565b91505092915050565b60006020828403121561203957600080fd5b600061204784828501611dd9565b91505092915050565b60006020828403121561206257600080fd5b600082013567ffffffffffffffff81111561207c57600080fd5b61208884828501611e18565b91505092915050565b6000602082840312156120a357600080fd5b60006120b184828501611e42565b91505092915050565b6120c381612906565b82525050565b6120d281612918565b82525050565b60006120e3826127ae565b6120ed81856127c4565b93506120fd818560208601612989565b61210681612b55565b840191505092915050565b600061211c826127b9565b61212681856127d5565b9350612136818560208601612989565b61213f81612b55565b840191505092915050565b6000612155826127b9565b61215f81856127e6565b935061216f818560208601612989565b80840191505092915050565b60006121886032836127d5565b915061219382612b66565b604082019050919050565b60006121ab6025836127d5565b91506121b682612bb5565b604082019050919050565b60006121ce601c836127d5565b91506121d982612c04565b602082019050919050565b60006121f16024836127d5565b91506121fc82612c2d565b604082019050919050565b60006122146019836127d5565b915061221f82612c7c565b602082019050919050565b6000612237602c836127d5565b915061224282612ca5565b604082019050919050565b600061225a6057836127e6565b915061226582612cf4565b605782019050919050565b600061227d6038836127d5565b915061228882612d69565b604082019050919050565b60006122a0602a836127d5565b91506122ab82612db8565b604082019050919050565b60006122c36029836127d5565b91506122ce82612e07565b604082019050919050565b60006122e6602e836127d5565b91506122f182612e56565b604082019050919050565b60006123096002836127e6565b915061231482612ea5565b600282019050919050565b600061232c6020836127d5565b915061233782612ece565b602082019050919050565b600061234f6031836127d5565b915061235a82612ef7565b604082019050919050565b6000612372602c836127d5565b915061237d82612f46565b604082019050919050565b6000612395602f836127d5565b91506123a082612f95565b604082019050919050565b60006123b86021836127d5565b91506123c382612fe4565b604082019050919050565b60006123db6031836127d5565b91506123e682613033565b604082019050919050565b6123fa81612970565b82525050565b600061240c828461214a565b915081905092915050565b6000612423828561214a565b915061242f828461214a565b91508190509392505050565b60006124468261224d565b9150612452828461214a565b915061245d826122fc565b915081905092915050565b600060208201905061247d60008301846120ba565b92915050565b600060808201905061249860008301876120ba565b6124a560208301866120ba565b6124b260408301856123f1565b81810360608301526124c481846120d8565b905095945050505050565b60006020820190506124e460008301846120c9565b92915050565b600060208201905081810360008301526125048184612111565b905092915050565b600060208201905081810360008301526125258161217b565b9050919050565b600060208201905081810360008301526125458161219e565b9050919050565b60006020820190508181036000830152612565816121c1565b9050919050565b60006020820190508181036000830152612585816121e4565b9050919050565b600060208201905081810360008301526125a581612207565b9050919050565b600060208201905081810360008301526125c58161222a565b9050919050565b600060208201905081810360008301526125e581612270565b9050919050565b6000602082019050818103600083015261260581612293565b9050919050565b60006020820190508181036000830152612625816122b6565b9050919050565b60006020820190508181036000830152612645816122d9565b9050919050565b600060208201905081810360008301526126658161231f565b9050919050565b6000602082019050818103600083015261268581612342565b9050919050565b600060208201905081810360008301526126a581612365565b9050919050565b600060208201905081810360008301526126c581612388565b9050919050565b600060208201905081810360008301526126e5816123ab565b9050919050565b60006020820190508181036000830152612705816123ce565b9050919050565b600060208201905061272160008301846123f1565b92915050565b6000612731612742565b905061273d82826129ee565b919050565b6000604051905090565b600067ffffffffffffffff82111561276757612766612b26565b5b61277082612b55565b9050602081019050919050565b600067ffffffffffffffff82111561279857612797612b26565b5b6127a182612b55565b9050602081019050919050565b600081519050919050565b600081519050919050565b600082825260208201905092915050565b600082825260208201905092915050565b600081905092915050565b60006127fc82612970565b915061280783612970565b9250827fffffffffffffffffffffffffffffffffffffffffffffffffffffffffffffffff0382111561283c5761283b612a99565b5b828201905092915050565b600061285282612970565b915061285d83612970565b92508261286d5761286c612ac8565b5b828204905092915050565b600061288382612970565b915061288e83612970565b9250817fffffffffffffffffffffffffffffffffffffffffffffffffffffffffffffffff04831182151516156128c7576128c6612a99565b5b828202905092915050565b60006128dd82612970565b91506128e883612970565b9250828210156128fb576128fa612a99565b5b828203905092915050565b600061291182612950565b9050919050565b60008115159050919050565b60007fffffffff0000000000000000000000000000000000000000000000000000000082169050919050565b600073ffffffffffffffffffffffffffffffffffffffff82169050919050565b6000819050919050565b82818337600083830152505050565b60005b838110156129a757808201518184015260208101905061298c565b838111156129b6576000848401525b50505050565b600060028204905060018216806129d457607f821691505b602082108114156129e8576129e7612af7565b5b50919050565b6129f782612b55565b810181811067ffffffffffffffff82111715612a1657612a15612b26565b5b80604052505050565b6000612a2a82612970565b91507fffffffffffffffffffffffffffffffffffffffffffffffffffffffffffffffff821415612a5d57612a5c612a99565b5b600182019050919050565b6000612a7382612970565b9150612a7e83612970565b925082612a8e57612a8d612ac8565b5b828206905092915050565b7f4e487b7100000000000000000000000000000000000000000000000000000000600052601160045260246000fd5b7f4e487b7100000000000000000000000000000000000000000000000000000000600052601260045260246000fd5b7f4e487b7100000000000000000000000000000000000000000000000000000000600052602260045260246000fd5b7f4e487b7100000000000000000000000000000000000000000000000000000000600052604160045260246000fd5b6000601f19601f8301169050919050565b7f4552433732313a207472616e7366657220746f206e6f6e20455243373231526560008201527f63656976657220696d706c656d656e7465720000000000000000000000000000602082015250565b7f4552433732313a207472616e736665722066726f6d20696e636f72726563742060008201527f6f776e6572000000000000000000000000000000000000000000000000000000602082015250565b7f4552433732313a20746f6b656e20616c7265616479206d696e74656400000000600082015250565b7f4552433732313a207472616e7366657220746f20746865207a65726f2061646460008201527f7265737300000000000000000000000000000000000000000000000000000000602082015250565b7f4552433732313a20617070726f766520746f2063616c6c657200000000000000600082015250565b7f4552433732313a206f70657261746f7220717565727920666f72206e6f6e657860008201527f697374656e7420746f6b656e0000000000000000000000000000000000000000602082015250565b7f7b226e616d65223a2022535647204e4654222c20226465736372697074696f6e60008201527f223a2022416e204e4654206261736564206f6e2053564721222c20226174747260208201527f696275746573223a2022222c2022696d616765223a2022000000000000000000604082015250565b7f4552433732313a20617070726f76652063616c6c6572206973206e6f74206f7760008201527f6e6572206e6f7220617070726f76656420666f7220616c6c0000000000000000602082015250565b7f4552433732313a2062616c616e636520717565727920666f7220746865207a6560008201527f726f206164647265737300000000000000000000000000000000000000000000602082015250565b7f4552433732313a206f776e657220717565727920666f72206e6f6e657869737460008201527f656e7420746f6b656e0000000000000000000000000000000000000000000000602082015250565b7f45524337323155524953746f726167653a2055524920736574206f66206e6f6e60008201527f6578697374656e7420746f6b656e000000000000000000000000000000000000602082015250565b7f227d000000000000000000000000000000000000000000000000000000000000600082015250565b7f4552433732313a206d696e7420746f20746865207a65726f2061646472657373600082015250565b7f45524337323155524953746f726167653a2055524920717565727920666f722060008201527f6e6f6e6578697374656e7420746f6b656e000000000000000000000000000000602082015250565b7f4552433732313a20617070726f76656420717565727920666f72206e6f6e657860008201527f697374656e7420746f6b656e0000000000000000000000000000000000000000602082015250565b7f4552433732314d657461646174613a2055524920717565727920666f72206e6f60008201527f6e6578697374656e7420746f6b656e0000000000000000000000000000000000602082015250565b7f4552433732313a20617070726f76616c20746f2063757272656e74206f776e6560008201527f7200000000000000000000000000000000000000000000000000000000000000602082015250565b7f4552433732313a207472616e736665722063616c6c6572206973206e6f74206f60008201527f776e6572206e6f7220617070726f766564000000000000000000000000000000602082015250565b61308b81612906565b811461309657600080fd5b50565b6130a281612918565b81146130ad57600080fd5b50565b6130b981612924565b81146130c457600080fd5b50565b6130d081612970565b81146130db57600080fd5b5056fe4142434445464748494a4b4c4d4e4f505152535455565758595a6162636465666768696a6b6c6d6e6f707172737475767778797a303132333435363738392b2fa2646970667358221220ed3da46ea6fbec2c15e9c33d46ac1e1cc556042b0f87225afd507c01aec1dda964736f6c63430008010033",
  "devdoc": {
    "kind": "dev",
    "methods": {
      "approve(address,uint256)": {
        "details": "See {IERC721-approve}."
      },
      "balanceOf(address)": {
        "details": "See {IERC721-balanceOf}."
      },
      "getApproved(uint256)": {
        "details": "See {IERC721-getApproved}."
      },
      "isApprovedForAll(address,address)": {
        "details": "See {IERC721-isApprovedForAll}."
      },
      "name()": {
        "details": "See {IERC721Metadata-name}."
      },
      "ownerOf(uint256)": {
        "details": "See {IERC721-ownerOf}."
      },
      "safeTransferFrom(address,address,uint256)": {
        "details": "See {IERC721-safeTransferFrom}."
      },
      "safeTransferFrom(address,address,uint256,bytes)": {
        "details": "See {IERC721-safeTransferFrom}."
      },
      "setApprovalForAll(address,bool)": {
        "details": "See {IERC721-setApprovalForAll}."
      },
      "supportsInterface(bytes4)": {
        "details": "See {IERC165-supportsInterface}."
      },
      "symbol()": {
        "details": "See {IERC721Metadata-symbol}."
      },
      "tokenURI(uint256)": {
        "details": "See {IERC721Metadata-tokenURI}."
      },
      "transferFrom(address,address,uint256)": {
        "details": "See {IERC721-transferFrom}."
      }
    },
    "version": 1
  },
  "userdoc": {
    "kind": "user",
    "methods": {},
    "version": 1
  },
  "storageLayout": {
    "storage": [
      {
        "astId": 25,
        "contract": "contracts/SVGNFT.sol:SVGNFT",
        "label": "_name",
        "offset": 0,
        "slot": "0",
        "type": "t_string_storage"
      },
      {
        "astId": 27,
        "contract": "contracts/SVGNFT.sol:SVGNFT",
        "label": "_symbol",
        "offset": 0,
        "slot": "1",
        "type": "t_string_storage"
      },
      {
        "astId": 31,
        "contract": "contracts/SVGNFT.sol:SVGNFT",
        "label": "_owners",
        "offset": 0,
        "slot": "2",
        "type": "t_mapping(t_uint256,t_address)"
      },
      {
        "astId": 35,
        "contract": "contracts/SVGNFT.sol:SVGNFT",
        "label": "_balances",
        "offset": 0,
        "slot": "3",
        "type": "t_mapping(t_address,t_uint256)"
      },
      {
        "astId": 39,
        "contract": "contracts/SVGNFT.sol:SVGNFT",
        "label": "_tokenApprovals",
        "offset": 0,
        "slot": "4",
        "type": "t_mapping(t_uint256,t_address)"
      },
      {
        "astId": 45,
        "contract": "contracts/SVGNFT.sol:SVGNFT",
        "label": "_operatorApprovals",
        "offset": 0,
        "slot": "5",
        "type": "t_mapping(t_address,t_mapping(t_address,t_bool))"
      },
      {
        "astId": 1012,
        "contract": "contracts/SVGNFT.sol:SVGNFT",
        "label": "_tokenURIs",
        "offset": 0,
        "slot": "6",
        "type": "t_mapping(t_uint256,t_string_storage)"
      },
      {
        "astId": 1833,
        "contract": "contracts/SVGNFT.sol:SVGNFT",
        "label": "tokenCounter",
        "offset": 0,
        "slot": "7",
        "type": "t_uint256"
      }
    ],
    "types": {
      "t_address": {
        "encoding": "inplace",
        "label": "address",
        "numberOfBytes": "20"
      },
      "t_bool": {
        "encoding": "inplace",
        "label": "bool",
        "numberOfBytes": "1"
      },
      "t_mapping(t_address,t_bool)": {
        "encoding": "mapping",
        "key": "t_address",
        "label": "mapping(address => bool)",
        "numberOfBytes": "32",
        "value": "t_bool"
      },
      "t_mapping(t_address,t_mapping(t_address,t_bool))": {
        "encoding": "mapping",
        "key": "t_address",
        "label": "mapping(address => mapping(address => bool))",
        "numberOfBytes": "32",
        "value": "t_mapping(t_address,t_bool)"
      },
      "t_mapping(t_address,t_uint256)": {
        "encoding": "mapping",
        "key": "t_address",
        "label": "mapping(address => uint256)",
        "numberOfBytes": "32",
        "value": "t_uint256"
      },
      "t_mapping(t_uint256,t_address)": {
        "encoding": "mapping",
        "key": "t_uint256",
        "label": "mapping(uint256 => address)",
        "numberOfBytes": "32",
        "value": "t_address"
      },
      "t_mapping(t_uint256,t_string_storage)": {
        "encoding": "mapping",
        "key": "t_uint256",
        "label": "mapping(uint256 => string)",
        "numberOfBytes": "32",
        "value": "t_string_storage"
      },
      "t_string_storage": {
        "encoding": "bytes",
        "label": "string",
        "numberOfBytes": "32"
      },
      "t_uint256": {
        "encoding": "inplace",
        "label": "uint256",
        "numberOfBytes": "32"
      }
    }
  }
}